{
  "contractName": "LiquidateWrapper",
  "abi": [
    {
      "anonymous": false,
      "inputs": [
        {
          "indexed": false,
          "internalType": "address",
          "name": "token",
          "type": "address"
        },
        {
          "indexed": false,
          "internalType": "uint256",
          "name": "amount",
          "type": "uint256"
        }
      ],
      "name": "Gained",
      "type": "event"
    },
    {
      "anonymous": false,
      "inputs": [
        {
          "indexed": false,
          "internalType": "uint256",
          "name": "errorCode",
          "type": "uint256"
        }
      ],
      "name": "compoundError",
      "type": "event"
    },
    {
      "payable": true,
      "stateMutability": "payable",
      "type": "fallback"
    },
    {
      "constant": true,
      "inputs": [],
      "name": "CEtherAddress",
      "outputs": [
        {
          "internalType": "address",
          "name": "",
          "type": "address"
        }
      ],
      "payable": false,
      "stateMutability": "view",
      "type": "function"
    },
    {
      "constant": false,
      "inputs": [],
      "name": "finalizeUpgrade",
      "outputs": [],
      "payable": false,
      "stateMutability": "nonpayable",
      "type": "function"
    },
    {
      "constant": true,
      "inputs": [],
      "name": "governance",
      "outputs": [
        {
          "internalType": "address",
          "name": "str",
          "type": "address"
        }
      ],
      "payable": false,
      "stateMutability": "view",
      "type": "function"
    },
    {
      "constant": true,
      "inputs": [
        {
          "internalType": "address",
          "name": "account",
          "type": "address"
        }
      ],
      "name": "isGovernance",
      "outputs": [
        {
          "internalType": "bool",
          "name": "",
          "type": "bool"
        }
      ],
      "payable": false,
      "stateMutability": "view",
      "type": "function"
    },
    {
      "constant": true,
      "inputs": [],
      "name": "nextImplementation",
      "outputs": [
        {
          "internalType": "address",
          "name": "",
          "type": "address"
        }
      ],
      "payable": false,
      "stateMutability": "view",
      "type": "function"
    },
    {
      "constant": true,
      "inputs": [],
      "name": "nextImplementationTimestamp",
      "outputs": [
        {
          "internalType": "uint256",
          "name": "",
          "type": "uint256"
        }
      ],
      "payable": false,
      "stateMutability": "view",
      "type": "function"
    },
    {
      "constant": true,
      "inputs": [],
      "name": "reserveToken",
      "outputs": [
        {
          "internalType": "address",
          "name": "",
          "type": "address"
        }
      ],
      "payable": false,
      "stateMutability": "view",
      "type": "function"
    },
    {
      "constant": false,
      "inputs": [
        {
          "internalType": "address",
          "name": "impl",
          "type": "address"
        },
        {
          "internalType": "uint256",
          "name": "delay",
          "type": "uint256"
        }
      ],
      "name": "scheduleUpgrade",
      "outputs": [],
      "payable": false,
      "stateMutability": "nonpayable",
      "type": "function"
    },
    {
      "constant": false,
      "inputs": [
        {
          "internalType": "address",
          "name": "_governance",
          "type": "address"
        }
      ],
      "name": "setGovernance",
      "outputs": [],
      "payable": false,
      "stateMutability": "nonpayable",
      "type": "function"
    },
    {
      "constant": true,
      "inputs": [],
      "name": "shouldUpgrade",
      "outputs": [
        {
          "internalType": "bool",
          "name": "",
          "type": "bool"
        },
        {
          "internalType": "address",
          "name": "",
          "type": "address"
        }
      ],
      "payable": false,
      "stateMutability": "view",
      "type": "function"
    },
    {
      "constant": true,
      "inputs": [],
      "name": "swapWrapper",
      "outputs": [
        {
          "internalType": "contract SwapWrapper",
          "name": "",
          "type": "address"
        }
      ],
      "payable": false,
      "stateMutability": "view",
      "type": "function"
    },
    {
      "constant": false,
      "inputs": [
        {
          "internalType": "address",
          "name": "_governance",
          "type": "address"
        },
        {
          "internalType": "address payable",
          "name": "_swapWrapper",
          "type": "address"
        },
        {
          "internalType": "address",
          "name": "_CEtherAddress",
          "type": "address"
        }
      ],
      "name": "initialize",
      "outputs": [],
      "payable": false,
      "stateMutability": "nonpayable",
      "type": "function"
    },
    {
      "constant": false,
      "inputs": [
        {
          "internalType": "address",
          "name": "_governance",
          "type": "address"
        }
      ],
      "name": "initialize",
      "outputs": [],
      "payable": false,
      "stateMutability": "nonpayable",
      "type": "function"
    },
    {
      "constant": false,
      "inputs": [
        {
          "internalType": "address[]",
          "name": "swapInPath",
          "type": "address[]"
        },
        {
          "internalType": "address",
          "name": "token",
          "type": "address"
        },
        {
          "internalType": "address",
          "name": "borrower",
          "type": "address"
        },
        {
          "internalType": "uint256",
          "name": "repayAmount",
          "type": "uint256"
        },
        {
          "internalType": "address",
          "name": "collateral",
          "type": "address"
        },
        {
          "internalType": "uint256",
          "name": "amountInMax",
          "type": "uint256"
        },
        {
          "internalType": "address[]",
          "name": "swapOutPath",
          "type": "address[]"
        },
        {
          "internalType": "uint256",
          "name": "slide",
          "type": "uint256"
        }
      ],
      "name": "liquidateERC20AndSell",
      "outputs": [
        {
          "internalType": "uint256",
          "name": "",
          "type": "uint256"
        }
      ],
      "payable": false,
      "stateMutability": "nonpayable",
      "type": "function"
    },
    {
      "constant": false,
      "inputs": [
        {
          "internalType": "address[]",
          "name": "swapInPath",
          "type": "address[]"
        },
        {
          "internalType": "address",
          "name": "token",
          "type": "address"
        },
        {
          "internalType": "address",
          "name": "borrower",
          "type": "address"
        },
        {
          "internalType": "uint256",
          "name": "repayAmount",
          "type": "uint256"
        },
        {
          "internalType": "address",
          "name": "collateral",
          "type": "address"
        },
        {
          "internalType": "uint256",
          "name": "amountInMax",
          "type": "uint256"
        }
      ],
      "name": "liquidateERC20",
      "outputs": [
        {
          "internalType": "uint256",
          "name": "",
          "type": "uint256"
        }
      ],
      "payable": false,
      "stateMutability": "nonpayable",
      "type": "function"
    },
    {
      "constant": false,
      "inputs": [
        {
          "internalType": "address[]",
          "name": "swapInPath",
          "type": "address[]"
        },
        {
          "internalType": "address",
          "name": "borrower",
          "type": "address"
        },
        {
          "internalType": "uint256",
          "name": "repayAmount",
          "type": "uint256"
        },
        {
          "internalType": "address",
          "name": "collateral",
          "type": "address"
        },
        {
          "internalType": "uint256",
          "name": "amountInMax",
          "type": "uint256"
        },
        {
          "internalType": "address[]",
          "name": "swapOutPath",
          "type": "address[]"
        },
        {
          "internalType": "uint256",
          "name": "slide",
          "type": "uint256"
        }
      ],
      "name": "liquidateETHAndSell",
      "outputs": [
        {
          "internalType": "uint256",
          "name": "",
          "type": "uint256"
        }
      ],
      "payable": false,
      "stateMutability": "nonpayable",
      "type": "function"
    },
    {
      "constant": false,
      "inputs": [
        {
          "internalType": "address[]",
          "name": "swapInPath",
          "type": "address[]"
        },
        {
          "internalType": "address",
          "name": "borrower",
          "type": "address"
        },
        {
          "internalType": "uint256",
          "name": "repayAmount",
          "type": "uint256"
        },
        {
          "internalType": "address",
          "name": "collateral",
          "type": "address"
        },
        {
          "internalType": "uint256",
          "name": "amountInMax",
          "type": "uint256"
        }
      ],
      "name": "liquidateETH",
      "outputs": [
        {
          "internalType": "uint256",
          "name": "",
          "type": "uint256"
        }
      ],
      "payable": true,
      "stateMutability": "payable",
      "type": "function"
    },
    {
      "constant": false,
      "inputs": [
        {
          "internalType": "address[]",
          "name": "swapInPath",
          "type": "address[]"
        },
        {
          "internalType": "address",
          "name": "borrower",
          "type": "address"
        },
        {
          "internalType": "uint256",
          "name": "repayAmount",
          "type": "uint256"
        },
        {
          "internalType": "address",
          "name": "collateral",
          "type": "address"
        },
        {
          "internalType": "uint256",
          "name": "amountInMax",
          "type": "uint256"
        },
        {
          "internalType": "bool",
          "name": "sell",
          "type": "bool"
        }
      ],
      "name": "liquidateETHInternal",
      "outputs": [
        {
          "internalType": "uint256",
          "name": "amountIn",
          "type": "uint256"
        },
        {
          "internalType": "uint256",
          "name": "amountOut",
          "type": "uint256"
        }
      ],
      "payable": true,
      "stateMutability": "payable",
      "type": "function"
    },
    {
      "constant": false,
      "inputs": [
        {
          "internalType": "address",
          "name": "_token",
          "type": "address"
        },
        {
          "internalType": "address",
          "name": "_account",
          "type": "address"
        },
        {
          "internalType": "uint256",
          "name": "amount",
          "type": "uint256"
        }
      ],
      "name": "withdrawERC20",
      "outputs": [
        {
          "internalType": "uint256",
          "name": "",
          "type": "uint256"
        }
      ],
      "payable": false,
      "stateMutability": "nonpayable",
      "type": "function"
    },
    {
      "constant": false,
      "inputs": [
        {
          "internalType": "address payable",
          "name": "_account",
          "type": "address"
        },
        {
          "internalType": "uint256",
          "name": "amount",
          "type": "uint256"
        }
      ],
      "name": "withdraw",
      "outputs": [
        {
          "internalType": "uint256",
          "name": "",
          "type": "uint256"
        }
      ],
      "payable": false,
      "stateMutability": "nonpayable",
      "type": "function"
    },
    {
      "constant": false,
      "inputs": [
        {
          "internalType": "address payable",
          "name": "_swapWrapper",
          "type": "address"
        }
      ],
      "name": "setSwapWrapper",
      "outputs": [],
      "payable": false,
      "stateMutability": "nonpayable",
      "type": "function"
    },
    {
      "constant": false,
      "inputs": [
        {
          "internalType": "address",
          "name": "_CEtherAddress",
          "type": "address"
        }
      ],
      "name": "setCEtherAddress",
      "outputs": [],
      "payable": false,
      "stateMutability": "nonpayable",
      "type": "function"
    }
  ],
  "bytecode": "0x608060405234801561001057600080fd5b50612e10806100206000396000f3fe6080604052600436106101355760003560e01c8063a0aaf949116100ab578063dee1f0e41161006f578063dee1f0e414610724578063e08ba43b1461076b578063e8bcb867146108c9578063f3a5ce6b14610902578063f3fef3a314610917578063f4325d671461095057610135565b8063a0aaf9491461044f578063ab033ea9146105a5578063c0c53b8b146105d8578063c4d66de81461061d578063cd6813461461065057610135565b80635aa6e675116100fd5780635aa6e67514610303578063744d27121461031857806382de9c1b1461032d5780638eaa748a146103425780639a508c8e146104025780639d16acfd1461041757610135565b806309ff18f01461013757806317f9c3a5146101685780633ad3076e1461019b57806344004cc11461027b578063468c52e4146102d0575b005b34801561014357600080fd5b5061014c610965565b604080516001600160a01b039092168252519081900360200190f35b34801561017457600080fd5b506101356004803603602081101561018b57600080fd5b50356001600160a01b03166109a8565b610262600480360360c08110156101b157600080fd5b810190602081018135600160201b8111156101cb57600080fd5b8201836020820111156101dd57600080fd5b803590602001918460208302840111600160201b831117156101fe57600080fd5b919080806020026020016040519081016040528093929190818152602001838360200280828437600092019190915250929550506001600160a01b038335811694506020840135936040810135909116925060608101359150608001351515610a5e565b6040805192835260208301919091528051918290030190f35b34801561028757600080fd5b506102be6004803603606081101561029e57600080fd5b506001600160a01b038135811691602081013590911690604001356110e5565b60408051918252519081900360200190f35b3480156102dc57600080fd5b50610135600480360360208110156102f357600080fd5b50356001600160a01b03166112b1565b34801561030f57600080fd5b5061014c611367565b34801561032457600080fd5b5061014c6113a1565b34801561033957600080fd5b506102be6113b0565b6102be600480360360a081101561035857600080fd5b810190602081018135600160201b81111561037257600080fd5b82018360208201111561038457600080fd5b803590602001918460208302840111600160201b831117156103a557600080fd5b919080806020026020016040519081016040528093929190818152602001838360200280828437600092019190915250929550506001600160a01b03833581169450602084013593604081013590911692506060013590506113eb565b34801561040e57600080fd5b50610135611469565b34801561042357600080fd5b5061042c61152d565b6040805192151583526001600160a01b0390911660208301528051918290030190f35b34801561045b57600080fd5b506102be600480360360e081101561047257600080fd5b810190602081018135600160201b81111561048c57600080fd5b82018360208201111561049e57600080fd5b803590602001918460208302840111600160201b831117156104bf57600080fd5b91908080602002602001604051908101604052809392919081815260200183836020028082843760009201919091525092956001600160a01b038535811696602087013596604081013590921695506060820135945091925060a081019060800135600160201b81111561053257600080fd5b82018360208201111561054457600080fd5b803590602001918460208302840111600160201b8311171561056557600080fd5b9190808060200260200160405190810160405280939291908181526020018383602002808284376000920191909152509295505091359250611579915050565b3480156105b157600080fd5b50610135600480360360208110156105c857600080fd5b50356001600160a01b0316611607565b3480156105e457600080fd5b50610135600480360360608110156105fb57600080fd5b506001600160a01b0381358116916020810135821691604090910135166116d2565b34801561062957600080fd5b506101356004803603602081101561064057600080fd5b50356001600160a01b031661180f565b34801561065c57600080fd5b506102be600480360360c081101561067357600080fd5b810190602081018135600160201b81111561068d57600080fd5b82018360208201111561069f57600080fd5b803590602001918460208302840111600160201b831117156106c057600080fd5b919080806020026020016040519081016040528093929190818152602001838360200280828437600092019190915250929550506001600160a01b0383358116945060208401358116936040810135935060608101359091169150608001356118bb565b34801561073057600080fd5b506107576004803603602081101561074757600080fd5b50356001600160a01b0316611942565b604080519115158252519081900360200190f35b34801561077757600080fd5b506102be600480360361010081101561078f57600080fd5b810190602081018135600160201b8111156107a957600080fd5b8201836020820111156107bb57600080fd5b803590602001918460208302840111600160201b831117156107dc57600080fd5b91908080602002602001604051908101604052809392919081815260200183836020028082843760009201919091525092956001600160a01b03853581169660208701358216966040810135965060608101359092169450608082013593509060c081019060a00135600160201b81111561085657600080fd5b82018360208201111561086857600080fd5b803590602001918460208302840111600160201b8311171561088957600080fd5b9190808060200260200160405190810160405280939291908181526020018383602002808284376000920191909152509295505091359250611967915050565b3480156108d557600080fd5b50610135600480360360408110156108ec57600080fd5b506001600160a01b038135169060200135611a0b565b34801561090e57600080fd5b5061014c611b35565b34801561092357600080fd5b506102be6004803603604081101561093a57600080fd5b506001600160a01b038135169060200135611b44565b34801561095c57600080fd5b5061014c611c32565b6040805178199a5b19184b925b5c1b195b595b9d185d1a5bdb8b9cdb1bdd603a1b815290519081900360190190206000906109a39060001901611c41565b905090565b6109b133611942565b6109f3576040805162461bcd60e51b815260206004820152600e60248201526d4e6f7420676f7665726e616e636560901b604482015290519081900360640190fd5b6001600160a01b038116610a3c576040805162461bcd60e51b815260206004820152601d6024820152600080516020612d29833981519152604482015290519081900360640190fd5b603480546001600160a01b0319166001600160a01b0392909216919091179055565b600080875160001415610ab157853414610aa95760405162461bcd60e51b8152600401808060200182810382526033815260200180612d736033913960400191505060405180910390fd5b349150610dd1565b603354604080516303e21fa960e61b815290516060926001600160a01b03169163f887ea40916004808301926020929190829003018186803b158015610af657600080fd5b505afa158015610b0a573d6000803e3d6000fd5b505050506040513d6020811015610b2057600080fd5b5051604080516307c0329d60e21b8152600481018a8152602482019283528c5160448301528c516001600160a01b0390941693631f00ca74938c938f93926064909101906020858101910280838360005b83811015610b89578181015183820152602001610b71565b50505050905001935050505060006040518083038186803b158015610bad57600080fd5b505afa158015610bc1573d6000803e3d6000fd5b505050506040513d6000823e601f3d908101601f191682016040526020811015610bea57600080fd5b8101908080516040519392919084600160201b821115610c0957600080fd5b908301906020820185811115610c1e57600080fd5b82518660208202830111600160201b82111715610c3a57600080fd5b82525081516020918201928201910280838360005b83811015610c67578181015183820152602001610c4f565b50505050905001604052505050905080600081518110610c8357fe5b60200260200101519250610cc13330858c600081518110610ca057fe5b60200260200101516001600160a01b0316611c45909392919063ffffffff16565b6033548951610d01916001600160a01b03169085908c90600090610ce157fe5b60200260200101516001600160a01b0316611c9f9092919063ffffffff16565b60335460405163694279e560e01b815260048101898152604482018890526060602483019081528c5160648401528c516001600160a01b039094169363694279e5938c938f938c93919290916084909101906020808701910280838360005b83811015610d78578181015183820152602001610d60565b505050509050019450505050506040805180830381600087803b158015610d9e57600080fd5b505af1158015610db2573d6000803e3d6000fd5b505050506040513d6040811015610dc857600080fd5b50602001519650505b60345460408051635572051560e11b81526001600160a01b038a8116600483015288811660248301529151919092169163aae40a2a91899160448082019260009290919082900301818588803b158015610e2a57600080fd5b505af1158015610e3e573d6000803e3d6000fd5b5050604080516370a0823160e01b815230600482015290516001600160a01b038a16945063db006a7593508492506370a0823191602480820192602092909190829003018186803b158015610e9257600080fd5b505afa158015610ea6573d6000803e3d6000fd5b505050506040513d6020811015610ebc57600080fd5b5051604080516001600160e01b031960e085901b16815260048101929092525160248083019260209291908290030181600087803b158015610efd57600080fd5b505af1158015610f11573d6000803e3d6000fd5b505050506040513d6020811015610f2757600080fd5b50506034546001600160a01b0386811691161415610f7a57504782610f7557604051339082156108fc029083906000818181858888f19350505050158015610f73573d6000803e3d6000fd5b505b6110da565b846001600160a01b0316636f307dc36040518163ffffffff1660e01b815260040160206040518083038186803b158015610fb357600080fd5b505afa158015610fc7573d6000803e3d6000fd5b505050506040513d6020811015610fdd57600080fd5b5051604080516370a0823160e01b815230600482015290516001600160a01b03909216916370a0823191602480820192602092909190829003018186803b15801561102757600080fd5b505afa15801561103b573d6000803e3d6000fd5b505050506040513d602081101561105157600080fd5b50519050826110da576110da3382876001600160a01b0316636f307dc36040518163ffffffff1660e01b815260040160206040518083038186803b15801561109857600080fd5b505afa1580156110ac573d6000803e3d6000fd5b505050506040513d60208110156110c257600080fd5b50516001600160a01b0316919063ffffffff611db716565b965096945050505050565b60006110f033611942565b611132576040805162461bcd60e51b815260206004820152600e60248201526d4e6f7420676f7665726e616e636560901b604482015290519081900360640190fd5b6001600160a01b0384161580159061115257506001600160a01b03831615155b801561115e5750600082115b61119d576040805162461bcd60e51b815260206004820152601d6024820152600080516020612d29833981519152604482015290519081900360640190fd5b604080516370a0823160e01b8152306004820152905185916001600160a01b038316916370a0823191602480820192602092909190829003018186803b1580156111e657600080fd5b505afa1580156111fa573d6000803e3d6000fd5b505050506040513d602081101561121057600080fd5b505183111561128e57604080516370a0823160e01b815230600482015290516001600160a01b038316916370a08231916024808301926020929190829003018186803b15801561125f57600080fd5b505afa158015611273573d6000803e3d6000fd5b505050506040513d602081101561128957600080fd5b505192505b6112a86001600160a01b038216858563ffffffff611db716565b50909392505050565b6112ba33611942565b6112fc576040805162461bcd60e51b815260206004820152600e60248201526d4e6f7420676f7665726e616e636560901b604482015290519081900360640190fd5b6001600160a01b038116611345576040805162461bcd60e51b815260206004820152601d6024820152600080516020612d29833981519152604482015290519081900360640190fd5b603380546001600160a01b0319166001600160a01b0392909216919091179055565b6040805174199a5b19184b91dbdd995c9b985b98d94b9cdb1bdd605a1b815290519081900360150190206000906109a39060001901611c41565b6034546001600160a01b031681565b6040805175199a5b19184b955c19dc985919551a5b594b9cdb1bdd60521b815290519081900360160190206000906109a39060001901611c41565b60006001600160a01b0385161580159061140d57506001600160a01b03831615155b61144c576040805162461bcd60e51b815260206004820152601d6024820152600080516020612d29833981519152604482015290519081900360640190fd5b600061145d87878787876000610a5e565b98975050505050505050565b61147233611942565b6114b4576040805162461bcd60e51b815260206004820152600e60248201526d4e6f7420676f7665726e616e636560901b604482015290519081900360640190fd5b6040805178199a5b19184b925b5c1b195b595b9d185d1a5bdb8b9cdb1bdd603a1b815290519081900360190190206114f190600019016000611e09565b6040805175199a5b19184b955c19dc985919551a5b594b9cdb1bdd60521b8152905190819003601601902061152b90600019016000611e09565b565b6000806115386113b0565b1580159061154c57506115496113b0565b42115b80156115695750600061155d610965565b6001600160a01b031614155b611571610965565b915091509091565b60006001600160a01b0387161580159061159b57506001600160a01b03851615155b6115da576040805162461bcd60e51b815260206004820152601d6024820152600080516020612d29833981519152604482015290519081900360640190fd5b60006115eb89898989896001610a5e565b5090506115fa81878686611e0d565b9998505050505050505050565b61161033611942565b611652576040805162461bcd60e51b815260206004820152600e60248201526d4e6f7420676f7665726e616e636560901b604482015290519081900360640190fd5b6001600160a01b0381166116975760405162461bcd60e51b8152600401808060200182810382526021815260200180612cda6021913960400191505060405180910390fd5b6040805174199a5b19184b91dbdd995c9b985b98d94b9cdb1bdd605a1b815290519081900360150190206116cf906000190182611e09565b50565b600054610100900460ff16806116eb57506116eb612250565b806116f9575060005460ff16155b6117345760405162461bcd60e51b815260040180806020018281038252602e815260200180612cfb602e913960400191505060405180910390fd5b600054610100900460ff1615801561175f576000805460ff1961ff0019909116610100171660011790555b6001600160a01b0383161580159061177f57506001600160a01b03821615155b6117be576040805162461bcd60e51b815260206004820152601d6024820152600080516020612d29833981519152604482015290519081900360640190fd5b6117c78461180f565b603380546001600160a01b038086166001600160a01b03199283161790925560348054928516929091169190911790558015611809576000805461ff00191690555b50505050565b600054610100900460ff16806118285750611828612250565b80611836575060005460ff16155b6118715760405162461bcd60e51b815260040180806020018281038252602e815260200180612cfb602e913960400191505060405180910390fd5b600054610100900460ff1615801561189c576000805460ff1961ff0019909116610100171660011790555b6118a582612256565b80156118b7576000805461ff00191690555b5050565b60006001600160a01b038616158015906118dd57506001600160a01b03851615155b80156118f157506001600160a01b03831615155b611930576040805162461bcd60e51b815260206004820152601d6024820152600080516020612d29833981519152604482015290519081900360640190fd5b60006115fa888888888888600061231b565b600061194c611367565b6001600160a01b0316826001600160a01b0316149050919050565b60006001600160a01b0388161580159061198957506001600160a01b03871615155b801561199d57506001600160a01b03851615155b6119dc576040805162461bcd60e51b815260206004820152601d6024820152600080516020612d29833981519152604482015290519081900360640190fd5b60006119ee8a8a8a8a8a8a600161231b565b5090506119fd81878686611e0d565b9a9950505050505050505050565b611a1433611942565b611a56576040805162461bcd60e51b815260206004820152600e60248201526d4e6f7420676f7665726e616e636560901b604482015290519081900360640190fd5b6001600160a01b038216611ab1576040805162461bcd60e51b815260206004820152601760248201527f696d706c656d656e742061646472657373206973203021000000000000000000604482015290519081900360640190fd5b6040805178199a5b19184b925b5c1b195b595b9d185d1a5bdb8b9cdb1bdd603a1b81529051908190036019019020611aed906000190183611e09565b6040805175199a5b19184b955c19dc985919551a5b594b9cdb1bdd60521b815290519081900360160190206118b79060001901611b30428463ffffffff6129ab16565b611e09565b6033546001600160a01b031681565b6000611b4f33611942565b611b91576040805162461bcd60e51b815260206004820152600e60248201526d4e6f7420676f7665726e616e636560901b604482015290519081900360640190fd5b6001600160a01b03831615801590611ba95750600082115b611be8576040805162461bcd60e51b815260206004820152601d6024820152600080516020612d29833981519152604482015290519081900360640190fd5b47821115611bf4574791505b6040516001600160a01b0384169083156108fc029084906000818181858888f19350505050158015611c2a573d6000803e3d6000fd5b509092915050565b6035546001600160a01b031681565b5490565b604080516001600160a01b0385811660248301528416604482015260648082018490528251808303909101815260849091019091526020810180516001600160e01b03166323b872dd60e01b179052611809908590612a0c565b801580611d25575060408051636eb1769f60e11b81523060048201526001600160a01b03848116602483015291519185169163dd62ed3e91604480820192602092909190829003018186803b158015611cf757600080fd5b505afa158015611d0b573d6000803e3d6000fd5b505050506040513d6020811015611d2157600080fd5b5051155b611d605760405162461bcd60e51b8152600401808060200182810382526036815260200180612da66036913960400191505060405180910390fd5b604080516001600160a01b038416602482015260448082018490528251808303909101815260649091019091526020810180516001600160e01b031663095ea7b360e01b179052611db2908490612a0c565b505050565b604080516001600160a01b038416602482015260448082018490528251808303909101815260649091019091526020810180516001600160e01b031663a9059cbb60e01b179052611db2908490612a0c565b9055565b60345460009081906001600160a01b0386811691161415611eee5760335460408051639712341560e01b8152600060248201819052600482019283528751604483015287516001600160a01b039094169363971234159347938a939282916064019060208087019102808383885b83811015611e93578181015183820152602001611e7b565b50505050905001935050505060408051808303818588803b158015611eb757600080fd5b505af1158015611ecb573d6000803e3d6000fd5b50505050506040513d6040811015611ee257600080fd5b50602001519050612189565b6000856001600160a01b0316636f307dc36040518163ffffffff1660e01b815260040160206040518083038186803b158015611f2957600080fd5b505afa158015611f3d573d6000803e3d6000fd5b505050506040513d6020811015611f5357600080fd5b5051604080516370a0823160e01b815230600482015290516001600160a01b03909216916370a0823191602480820192602092909190829003018186803b158015611f9d57600080fd5b505afa158015611fb1573d6000803e3d6000fd5b505050506040513d6020811015611fc757600080fd5b505160408051636f307dc360e01b815290519192506001600160a01b03881691636f307dc391600480820192602092909190829003018186803b15801561200d57600080fd5b505afa158015612021573d6000803e3d6000fd5b505050506040513d602081101561203757600080fd5b50516033546040805163095ea7b360e01b81526001600160a01b039283166004820152602481018590529051919092169163095ea7b39160448083019260209291908290030181600087803b15801561208f57600080fd5b505af11580156120a3573d6000803e3d6000fd5b505050506040513d60208110156120b957600080fd5b505060335460405163bc88167960e01b8152600481018381526000604483018190526060602484019081528951606485015289516001600160a01b039095169463bc8816799487948c9493909290916084019060208681019102808383885b83811015612130578181015183820152602001612118565b505050509050019450505050506040805180830381600087803b15801561215657600080fd5b505af115801561216a573d6000803e3d6000fd5b505050506040513d604081101561218057600080fd5b50602001519150505b6121be33828660018851038151811061219e57fe5b60200260200101516001600160a01b0316611db79092919063ffffffff16565b6121ce868463ffffffff6129ab16565b81116121d957600080fd5b7f0a8ddef098ffcef1be4678b89c0ff0f3d5f795539e4441175dac2f483a13240e8460018651038151811061220a57fe5b60200260200101516122258884612bc490919063ffffffff16565b604080516001600160a01b03909316835260208301919091528051918290030190a195945050505050565b303b1590565b600054610100900460ff168061226f575061226f612250565b8061227d575060005460ff16155b6122b85760405162461bcd60e51b815260040180806020018281038252602e815260200180612cfb602e913960400191505060405180910390fd5b600054610100900460ff161580156122e3576000805460ff1961ff0019909116610100171660011790555b6040805174199a5b19184b91dbdd995c9b985b98d94b9cdb1bdd605a1b815290519081900360150190206118a5906000190183611e09565b6000806000886001600160a01b0316636f307dc36040518163ffffffff1660e01b815260040160206040518083038186803b15801561235957600080fd5b505afa15801561236d573d6000803e3d6000fd5b505050506040513d602081101561238357600080fd5b50518a519091506123b1578692506123ac6001600160a01b03821633308663ffffffff611c4516565b6126a8565b603354604080516303e21fa960e61b815290516060926001600160a01b03169163f887ea40916004808301926020929190829003018186803b1580156123f657600080fd5b505afa15801561240a573d6000803e3d6000fd5b505050506040513d602081101561242057600080fd5b81019080805190602001909291905050506001600160a01b0316631f00ca74898d6040518363ffffffff1660e01b81526004018083815260200180602001828103825283818151815260200191508051906020019060200280838360005b8381101561249657818101518382015260200161247e565b50505050905001935050505060006040518083038186803b1580156124ba57600080fd5b505afa1580156124ce573d6000803e3d6000fd5b505050506040513d6000823e601f3d908101601f1916820160405260208110156124f757600080fd5b8101908080516040519392919084600160201b82111561251657600080fd5b90830190602082018581111561252b57600080fd5b82518660208202830111600160201b8211171561254757600080fd5b82525081516020918201928201910280838360005b8381101561257457818101518382015260200161255c565b5050505090500160405250505090508060008151811061259057fe5b602002602001015193506125ad3330868e600081518110610ca057fe5b6033548b516125cd916001600160a01b03169086908e90600090610ce157fe5b603360009054906101000a90046001600160a01b03166001600160a01b03166309085732898d896040518463ffffffff1660e01b81526004018084815260200180602001838152602001828103825284818151815260200191508051906020019060200280838360005b8381101561264f578181015183820152602001612637565b505050509050019450505050506040805180830381600087803b15801561267557600080fd5b505af1158015612689573d6000803e3d6000fd5b505050506040513d604081101561269f57600080fd5b50602001519750505b6126c26001600160a01b0382168a8963ffffffff611c9f16565b60408051637af1e23160e11b81526001600160a01b038a81166004830152602482018a905288811660448301529151918b169163f5e3c462916064808201926020929091908290030181600087803b15801561271d57600080fd5b505af1158015612731573d6000803e3d6000fd5b505050506040513d602081101561274757600080fd5b5050604080516370a0823160e01b815230600482015290516001600160a01b0388169163db006a759183916370a08231916024808301926020929190829003018186803b15801561279757600080fd5b505afa1580156127ab573d6000803e3d6000fd5b505050506040513d60208110156127c157600080fd5b5051604080516001600160e01b031960e085901b16815260048101929092525160248083019260209291908290030181600087803b15801561280257600080fd5b505af1158015612816573d6000803e3d6000fd5b505050506040513d602081101561282c57600080fd5b50506034546001600160a01b0387811691161415612880574791508361287b57604051339083156108fc029084906000818181858888f19350505050158015612879573d6000803e3d6000fd5b505b61299e565b856001600160a01b0316636f307dc36040518163ffffffff1660e01b815260040160206040518083038186803b1580156128b957600080fd5b505afa1580156128cd573d6000803e3d6000fd5b505050506040513d60208110156128e357600080fd5b5051604080516370a0823160e01b815230600482015290516001600160a01b03909216916370a0823191602480820192602092909190829003018186803b15801561292d57600080fd5b505afa158015612941573d6000803e3d6000fd5b505050506040513d602081101561295757600080fd5b505191508361299e5761299e3383886001600160a01b0316636f307dc36040518163ffffffff1660e01b815260040160206040518083038186803b15801561109857600080fd5b5097509795505050505050565b600082820183811015612a05576040805162461bcd60e51b815260206004820152601b60248201527f536166654d6174683a206164646974696f6e206f766572666c6f770000000000604482015290519081900360640190fd5b9392505050565b612a1e826001600160a01b0316612c06565b612a6f576040805162461bcd60e51b815260206004820152601f60248201527f5361666545524332303a2063616c6c20746f206e6f6e2d636f6e747261637400604482015290519081900360640190fd5b60006060836001600160a01b0316836040518082805190602001908083835b60208310612aad5780518252601f199092019160209182019101612a8e565b6001836020036101000a0380198251168184511680821785525050505050509050019150506000604051808303816000865af19150503d8060008114612b0f576040519150601f19603f3d011682016040523d82523d6000602084013e612b14565b606091505b509150915081612b6b576040805162461bcd60e51b815260206004820181905260248201527f5361666545524332303a206c6f772d6c6576656c2063616c6c206661696c6564604482015290519081900360640190fd5b80511561180957808060200190516020811015612b8757600080fd5b50516118095760405162461bcd60e51b815260040180806020018281038252602a815260200180612d49602a913960400191505060405180910390fd5b6000612a0583836040518060400160405280601e81526020017f536166654d6174683a207375627472616374696f6e206f766572666c6f770000815250612c42565b6000813f7fc5d2460186f7233c927e7db2dcc703c0e500b653ca82273b7bfad8045d85a4708115801590612c3a5750808214155b949350505050565b60008184841115612cd15760405162461bcd60e51b81526004018080602001828103825283818151815260200191508051906020019080838360005b83811015612c96578181015183820152602001612c7e565b50505050905090810190601f168015612cc35780820380516001836020036101000a031916815260200191505b509250505060405180910390fd5b50505090039056fe6e657720676f7665726e616e63652073686f756c646e277420626520656d707479436f6e747261637420696e7374616e63652068617320616c7265616479206265656e20696e697469616c697a65644c697175696461746f723a20496e76616c696420706172616d657465720000005361666545524332303a204552433230206f7065726174696f6e20646964206e6f7420737563636565644c697175696461746f723a20696e7075742076616c7565206973206e6f7420657175616c20746f207265706179416d6f756e745361666545524332303a20617070726f76652066726f6d206e6f6e2d7a65726f20746f206e6f6e2d7a65726f20616c6c6f77616e6365a265627a7a72315820473f6f11a2130801ea8278b23a18f6ab06d8f4e40ed2a1635547fc58f0ef378b64736f6c63430005100032",
  "source": "// SPDX-License-Identifier: MIT\npragma solidity >=0.4.22 <0.8.0;\n\nimport \"./UpgradeSource.sol\";\nimport \"./SwapWrapper.sol\";\nimport \"./uniswap/IUniswapV2Router02.sol\";\nimport \"./compound/CTokenInterfaces.sol\";\nimport \"./compound/CEther.sol\";\n\ncontract LiquidateWrapper is UpgradeSource {\n    using SafeERC20 for IERC20;\n    using SafeMath for uint256;\n\n    SwapWrapper public swapWrapper;\n\n    address public CEtherAddress;\n    address public reserveToken;\n\n    event compoundError(uint256 errorCode);\n    event Gained(address token, uint256 amount);\n\n    function initialize(\n        address _governance,\n        address payable _swapWrapper,\n        address _CEtherAddress\n        ) public initializer {\n        require(_swapWrapper != address(0) && _CEtherAddress != address(0) , \"Liquidator: Invalid parameter\");\n        UpgradeSource.initialize(_governance);\n        swapWrapper = SwapWrapper(_swapWrapper);\n        CEtherAddress = _CEtherAddress;\n    }\n\n    function liquidateERC20AndSell(address[] memory swapInPath, address token, address borrower, uint256 repayAmount,\n            address collateral, uint256 amountInMax, address[] memory swapOutPath, uint256 slide) public returns (uint256) {\n        require(token != address(0) && borrower != address(0) && collateral != address(0), \"Liquidator: Invalid parameter\");\n\n        (uint256 amountIn,) = liquidateERC20Internal(swapInPath, token, borrower, repayAmount, collateral, amountInMax, true);\n        return sellToken(amountIn, collateral, swapOutPath, slide);\n    }\n\n    function sellToken(uint256 amountIn, address collateral, address[] memory swapOutPath, uint256 slide) internal returns (uint256) {\n        uint256 amountOut;\n        if (collateral == CEtherAddress) {\n            (,amountOut) = swapWrapper.swapExactETHForTokens.value(address(this).balance)(swapOutPath, 0);\n        } else {\n            uint256 balance = IERC20(CErc20Interface(collateral).underlying()).balanceOf(address(this));\n            IERC20(CErc20Interface(collateral).underlying()).approve(address(swapWrapper), balance);\n            (,amountOut) = swapWrapper.swapExactTokensForTokens(balance, swapOutPath, 0);\n        }\n\n        IERC20(swapOutPath[swapOutPath.length - 1]).safeTransfer(msg.sender, amountOut);\n        require(amountOut > amountIn.add(slide));\n        emit Gained(swapOutPath[swapOutPath.length - 1], amountOut.sub(amountIn));\n\n        return amountOut;\n    }\n\n    function liquidateERC20(address[] memory swapInPath, address token,\n            address borrower, uint256 repayAmount, address collateral, uint256 amountInMax) public returns (uint256) {\n        require(token != address(0) && borrower != address(0) && collateral != address(0), \"Liquidator: Invalid parameter\");\n\n        (, uint256 amountOut) = liquidateERC20Internal(swapInPath, token, borrower, repayAmount, collateral, amountInMax, false);\n        return amountOut;\n    }\n\n    function liquidateERC20Internal(address[] memory swapInPath, address token, \n            address borrower, uint256 repayAmount, address collateral, uint256 amountInMax, bool sell) internal returns (uint256 amountIn, uint256 amountOut) {\n        address underlying = CErc20Interface(token).underlying();\n        if (swapInPath.length == 0) {\n            amountIn = repayAmount;\n            IERC20(underlying).safeTransferFrom(msg.sender, address(this), repayAmount);\n        } else {\n            uint256[] memory amountsIn = IUniswapV2Router02(swapWrapper.router()).getAmountsIn(repayAmount, swapInPath);\n            amountIn = amountsIn[0];\n            IERC20(swapInPath[0]).safeTransferFrom(msg.sender, address(this), amountIn);\n            IERC20(swapInPath[0]).safeApprove(address(swapWrapper), amountIn);\n            (,repayAmount) = swapWrapper.swapTokensForExactTokens(repayAmount, swapInPath, amountInMax);\n        }\n\n        IERC20(underlying).safeApprove(token, repayAmount);\n        CErc20Interface(token).liquidateBorrow(borrower, repayAmount, CTokenInterface(collateral));\n\n        CErc20Interface(collateral).redeem(CTokenInterface(collateral).balanceOf(address(this)));\n\n        if (collateral == CEtherAddress) {\n            amountOut = address(this).balance;\n            if (!sell) {\n                msg.sender.transfer(amountOut);\n            }\n        } else {\n            amountOut = IERC20(CErc20Interface(collateral).underlying()).balanceOf(address(this));\n            if (!sell) {\n                IERC20(CErc20Interface(collateral).underlying()).safeTransfer(msg.sender, amountOut);\n            }\n        }\n    }\n\n    function liquidateETHAndSell(address[] memory swapInPath, address borrower,\n        uint256 repayAmount, address collateral, uint256 amountInMax, address[] memory swapOutPath, uint256 slide) public returns (uint256) {\n        require(borrower != address(0) && collateral != address(0), \"Liquidator: Invalid parameter\");\n\n        (uint256 amountIn,) =  liquidateETHInternal(swapInPath, borrower, repayAmount, collateral, amountInMax, true);\n        return sellToken(amountIn, collateral, swapOutPath, slide);\n    }\n\n    function liquidateETH(address[] memory swapInPath, address borrower, uint256 repayAmount, address collateral, uint256 amountInMax) payable public returns (uint256) {\n        require(borrower != address(0) && collateral != address(0), \"Liquidator: Invalid parameter\");\n        (, uint256 amountOut) =  liquidateETHInternal(swapInPath, borrower, repayAmount, collateral, amountInMax, false);\n        return amountOut;\n    }\n\n    function liquidateETHInternal(address[] memory swapInPath, address borrower,\n            uint256 repayAmount, address collateral, uint256 amountInMax, bool sell) payable public returns (uint256 amountIn, uint256 amountOut) {\n        if (swapInPath.length == 0) {\n            require(msg.value == repayAmount, \"Liquidator: input value is not equal to repayAmount\");\n            amountIn = msg.value;\n        } else {\n            uint256[] memory amountsIn = IUniswapV2Router02(swapWrapper.router()).getAmountsIn(repayAmount, swapInPath);\n            amountIn = amountsIn[0];\n            IERC20(swapInPath[0]).safeTransferFrom(msg.sender, address(this), amountIn);\n            IERC20(swapInPath[0]).safeApprove(address(swapWrapper), amountIn);\n            (,repayAmount) = swapWrapper.swapTokensForExactETH(repayAmount, swapInPath, amountInMax);\n        }\n\n        CEther(CEtherAddress).liquidateBorrow.value(repayAmount)(borrower, collateral);\n\n        CErc20Interface(collateral).redeem(CTokenInterface(collateral).balanceOf(address(this)));\n        \n        if (collateral == CEtherAddress) {\n            amountOut = address(this).balance;\n            if (!sell) {\n                msg.sender.transfer(amountOut);\n            }\n        } else {\n            amountOut = IERC20(CErc20Interface(collateral).underlying()).balanceOf(address(this));\n            if (!sell) {\n                IERC20(CErc20Interface(collateral).underlying()).safeTransfer(msg.sender, amountOut);\n            }\n        }\n    }\n\n    function withdrawERC20(address _token, address _account, uint256 amount) public onlyGovernance returns (uint256) {\n        require(_token != address(0) && _account != address(0) && amount > 0, \"Liquidator: Invalid parameter\");\n        IERC20 token = IERC20(_token);\n        if (amount > token.balanceOf(address(this))) {\n            amount = token.balanceOf(address(this));\n        }\n        token.safeTransfer(_account, amount);\n        return amount;\n    }\n\n    function withdraw(address payable _account, uint256 amount) public onlyGovernance returns (uint256) {\n        require(_account != address(0) && amount > 0, \"Liquidator: Invalid parameter\");\n        if (amount > address(this).balance) {\n            amount = address(this).balance;\n        }\n        _account.transfer(amount);\n        return amount;\n    }\n\n    function() external payable {}\n\n    function setSwapWrapper(address payable _swapWrapper) public onlyGovernance {\n        require(_swapWrapper != address(0), \"Liquidator: Invalid parameter\");\n        swapWrapper = SwapWrapper(_swapWrapper);\n    }\n\n    function setCEtherAddress(address _CEtherAddress) public onlyGovernance {\n        require(_CEtherAddress != address(0), \"Liquidator: Invalid parameter\");\n        CEtherAddress = _CEtherAddress;\n    }\n}\n",
  "sourcePath": "/Users/huahua/repo/truffle/liquidator/contracts/LiquidateWrapper.sol",
  "compiler": {
    "name": "solc",
    "version": "0.5.16+commit.9c3226ce.Emscripten.clang"
  },
  "schemaVersion": "3.3.2",
  "updatedAt": "2021-03-25T02:09:15.233Z",
  "networkType": "ethereum",
  "devdoc": {
    "methods": {}
  },
  "userdoc": {
    "methods": {
      "scheduleUpgrade(address,uint256)": {
        "notice": "Schedules an upgrade for this vault's proxy."
      }
    }
  }
}