{
  "contractName": "SwapRepayTool",
  "abi": [
    {
      "inputs": [
        {
          "internalType": "address payable",
          "name": "_swapWrapper",
          "type": "address"
        }
      ],
      "payable": false,
      "stateMutability": "nonpayable",
      "type": "constructor"
    },
    {
      "anonymous": false,
      "inputs": [
        {
          "indexed": true,
          "internalType": "address",
          "name": "previousOwner",
          "type": "address"
        },
        {
          "indexed": true,
          "internalType": "address",
          "name": "newOwner",
          "type": "address"
        }
      ],
      "name": "OwnershipTransferred",
      "type": "event"
    },
    {
      "anonymous": false,
      "inputs": [
        {
          "indexed": false,
          "internalType": "address",
          "name": "borrower",
          "type": "address"
        },
        {
          "indexed": false,
          "internalType": "address",
          "name": "token",
          "type": "address"
        },
        {
          "indexed": false,
          "internalType": "uint256",
          "name": "amount",
          "type": "uint256"
        }
      ],
      "name": "Repayed",
      "type": "event"
    },
    {
      "payable": true,
      "stateMutability": "payable",
      "type": "fallback"
    },
    {
      "constant": true,
      "inputs": [],
      "name": "isOwner",
      "outputs": [
        {
          "internalType": "bool",
          "name": "",
          "type": "bool"
        }
      ],
      "payable": false,
      "stateMutability": "view",
      "type": "function"
    },
    {
      "constant": true,
      "inputs": [],
      "name": "owner",
      "outputs": [
        {
          "internalType": "address",
          "name": "",
          "type": "address"
        }
      ],
      "payable": false,
      "stateMutability": "view",
      "type": "function"
    },
    {
      "constant": false,
      "inputs": [],
      "name": "renounceOwnership",
      "outputs": [],
      "payable": false,
      "stateMutability": "nonpayable",
      "type": "function"
    },
    {
      "constant": true,
      "inputs": [],
      "name": "swapWrapper",
      "outputs": [
        {
          "internalType": "contract SwapWrapper",
          "name": "",
          "type": "address"
        }
      ],
      "payable": false,
      "stateMutability": "view",
      "type": "function"
    },
    {
      "constant": false,
      "inputs": [
        {
          "internalType": "address",
          "name": "newOwner",
          "type": "address"
        }
      ],
      "name": "transferOwnership",
      "outputs": [],
      "payable": false,
      "stateMutability": "nonpayable",
      "type": "function"
    },
    {
      "constant": false,
      "inputs": [
        {
          "internalType": "uint256",
          "name": "amountIn",
          "type": "uint256"
        },
        {
          "internalType": "address[]",
          "name": "path",
          "type": "address[]"
        },
        {
          "internalType": "address",
          "name": "repayCToken",
          "type": "address"
        },
        {
          "internalType": "uint256",
          "name": "amountOutMin",
          "type": "uint256"
        }
      ],
      "name": "swapExactERC20RepayERC20",
      "outputs": [],
      "payable": false,
      "stateMutability": "nonpayable",
      "type": "function"
    },
    {
      "constant": false,
      "inputs": [
        {
          "internalType": "address[]",
          "name": "path",
          "type": "address[]"
        },
        {
          "internalType": "address",
          "name": "repayCToken",
          "type": "address"
        },
        {
          "internalType": "uint256",
          "name": "repayAmount",
          "type": "uint256"
        },
        {
          "internalType": "uint256",
          "name": "amountInMax",
          "type": "uint256"
        }
      ],
      "name": "swapERC20RepayExactERC20",
      "outputs": [],
      "payable": false,
      "stateMutability": "nonpayable",
      "type": "function"
    },
    {
      "constant": false,
      "inputs": [
        {
          "internalType": "uint256",
          "name": "amountIn",
          "type": "uint256"
        },
        {
          "internalType": "address[]",
          "name": "path",
          "type": "address[]"
        },
        {
          "internalType": "address",
          "name": "CEtherAddress",
          "type": "address"
        },
        {
          "internalType": "uint256",
          "name": "amountOutMin",
          "type": "uint256"
        }
      ],
      "name": "swapExactERC20RepayETH",
      "outputs": [],
      "payable": false,
      "stateMutability": "nonpayable",
      "type": "function"
    },
    {
      "constant": false,
      "inputs": [
        {
          "internalType": "address[]",
          "name": "path",
          "type": "address[]"
        },
        {
          "internalType": "address",
          "name": "CEtherAddress",
          "type": "address"
        },
        {
          "internalType": "uint256",
          "name": "repayAmount",
          "type": "uint256"
        },
        {
          "internalType": "uint256",
          "name": "amountInMax",
          "type": "uint256"
        }
      ],
      "name": "swapERC20RepayExactETH",
      "outputs": [],
      "payable": false,
      "stateMutability": "nonpayable",
      "type": "function"
    },
    {
      "constant": false,
      "inputs": [
        {
          "internalType": "address[]",
          "name": "path",
          "type": "address[]"
        },
        {
          "internalType": "address",
          "name": "repayCToken",
          "type": "address"
        },
        {
          "internalType": "uint256",
          "name": "amountInMax",
          "type": "uint256"
        }
      ],
      "name": "swapERC20RepayERC20All",
      "outputs": [],
      "payable": false,
      "stateMutability": "nonpayable",
      "type": "function"
    },
    {
      "constant": false,
      "inputs": [
        {
          "internalType": "address[]",
          "name": "path",
          "type": "address[]"
        },
        {
          "internalType": "address",
          "name": "CEtherAddress",
          "type": "address"
        },
        {
          "internalType": "uint256",
          "name": "amountInMax",
          "type": "uint256"
        }
      ],
      "name": "swapERC20RepayETHAll",
      "outputs": [],
      "payable": false,
      "stateMutability": "nonpayable",
      "type": "function"
    },
    {
      "constant": false,
      "inputs": [
        {
          "internalType": "address[]",
          "name": "path",
          "type": "address[]"
        },
        {
          "internalType": "address",
          "name": "repayCToken",
          "type": "address"
        }
      ],
      "name": "swapETHRepayERC20All",
      "outputs": [],
      "payable": true,
      "stateMutability": "payable",
      "type": "function"
    },
    {
      "constant": false,
      "inputs": [
        {
          "internalType": "address[]",
          "name": "path",
          "type": "address[]"
        },
        {
          "internalType": "address",
          "name": "repayCToken",
          "type": "address"
        },
        {
          "internalType": "uint256",
          "name": "amountOutMin",
          "type": "uint256"
        }
      ],
      "name": "swapExactETHRepayERC20",
      "outputs": [],
      "payable": true,
      "stateMutability": "payable",
      "type": "function"
    },
    {
      "constant": false,
      "inputs": [
        {
          "internalType": "address",
          "name": "_token",
          "type": "address"
        },
        {
          "internalType": "address",
          "name": "_account",
          "type": "address"
        },
        {
          "internalType": "uint256",
          "name": "amount",
          "type": "uint256"
        }
      ],
      "name": "withdrawERC20",
      "outputs": [
        {
          "internalType": "uint256",
          "name": "",
          "type": "uint256"
        }
      ],
      "payable": false,
      "stateMutability": "nonpayable",
      "type": "function"
    },
    {
      "constant": false,
      "inputs": [
        {
          "internalType": "address payable",
          "name": "_account",
          "type": "address"
        },
        {
          "internalType": "uint256",
          "name": "amount",
          "type": "uint256"
        }
      ],
      "name": "withdraw",
      "outputs": [
        {
          "internalType": "uint256",
          "name": "",
          "type": "uint256"
        }
      ],
      "payable": false,
      "stateMutability": "nonpayable",
      "type": "function"
    }
  ],
  "bytecode": "0x608060405234801561001057600080fd5b5060405162002b4738038062002b478339818101604052602081101561003557600080fd5b50516100486001600160e01b036100b516565b600080546001600160a01b0319166001600160a01b03928316178082556040519216917f8be0079c531659141344cd1fd0a4f28419497f9722a3daafe3b4186f6b6457e0908290a3600180546001600160a01b0319166001600160a01b03929092169190911790556100b9565b3390565b612a7e80620000c96000396000f3fe6080604052600436106100e85760003560e01c80639a5452ea1161008a578063e5bec5f511610059578063e5bec5f5146105cc578063f2fde38b1461068e578063f3a5ce6b146106c1578063f3fef3a3146106d6576100e8565b80639a5452ea1461038c578063a1ee2ec21461044e578063b5ef2869146104d8578063df49e41a14610555576100e8565b80635fc70153116100c65780635fc7015314610293578063715018a61461031d5780638da5cb5b146103325780638f32d59b14610363576100e8565b806315fbdcfd146100ea5780632f29181f146101ad57806344004cc11461023e575b005b3480156100f657600080fd5b506100e86004803603608081101561010d57600080fd5b81359190810190604081016020820135600160201b81111561012e57600080fd5b82018360208201111561014057600080fd5b803590602001918460208302840111600160201b8311171561016157600080fd5b919080806020026020016040519081016040528093929190818152602001838360200280828437600092019190915250929550506001600160a01b03833516935050506020013561070f565b3480156101b957600080fd5b506100e8600480360360808110156101d057600080fd5b81359190810190604081016020820135600160201b8111156101f157600080fd5b82018360208201111561020357600080fd5b803590602001918460208302840111600160201b8311171561022457600080fd5b91935091506001600160a01b038135169060200135610951565b34801561024a57600080fd5b506102816004803603606081101561026157600080fd5b506001600160a01b03813581169160208101359091169060400135610c94565b60408051918252519081900360200190f35b34801561029f57600080fd5b506100e8600480360360608110156102b657600080fd5b810190602081018135600160201b8111156102d057600080fd5b8201836020820111156102e257600080fd5b803590602001918460208302840111600160201b8311171561030357600080fd5b91935091506001600160a01b038135169060200135610e6e565b34801561032957600080fd5b506100e8611059565b34801561033e57600080fd5b506103476110ea565b604080516001600160a01b039092168252519081900360200190f35b34801561036f57600080fd5b506103786110f9565b604080519115158252519081900360200190f35b34801561039857600080fd5b506100e8600480360360808110156103af57600080fd5b810190602081018135600160201b8111156103c957600080fd5b8201836020820111156103db57600080fd5b803590602001918460208302840111600160201b831117156103fc57600080fd5b919080806020026020016040519081016040528093929190818152602001838360200280828437600092019190915250929550506001600160a01b03833516935050506020810135906040013561111d565b34801561045a57600080fd5b506100e86004803603606081101561047157600080fd5b810190602081018135600160201b81111561048b57600080fd5b82018360208201111561049d57600080fd5b803590602001918460208302840111600160201b831117156104be57600080fd5b91935091506001600160a01b03813516906020013561155e565b6100e8600480360360608110156104ee57600080fd5b810190602081018135600160201b81111561050857600080fd5b82018360208201111561051a57600080fd5b803590602001918460208302840111600160201b8311171561053b57600080fd5b91935091506001600160a01b03813516906020013561166f565b6100e86004803603604081101561056b57600080fd5b810190602081018135600160201b81111561058557600080fd5b82018360208201111561059757600080fd5b803590602001918460208302840111600160201b831117156105b857600080fd5b9193509150356001600160a01b0316611849565b3480156105d857600080fd5b506100e8600480360360808110156105ef57600080fd5b810190602081018135600160201b81111561060957600080fd5b82018360208201111561061b57600080fd5b803590602001918460208302840111600160201b8311171561063c57600080fd5b919080806020026020016040519081016040528093929190818152602001838360200280828437600092019190915250929550506001600160a01b038335169350505060208101359060400135611d56565b34801561069a57600080fd5b506100e8600480360360208110156106b157600080fd5b50356001600160a01b0316612269565b3480156106cd57600080fd5b506103476122bc565b3480156106e257600080fd5b50610281600480360360408110156106f957600080fd5b506001600160a01b0381351690602001356122cb565b600084118015610720575060018351115b801561073457506001600160a01b03821615155b610773576040805162461bcd60e51b815260206004820181905260248201526000805160206129ca833981519152604482015290519081900360640190fd5b6107a73330868660008151811061078657fe5b60200260200101516001600160a01b03166123c7909392919063ffffffff16565b60015483516107e7916001600160a01b031690869086906000906107c757fe5b60200260200101516001600160a01b03166124279092919063ffffffff16565b600154604051632679fb5f60e01b815260048101868152604482018490526060602483019081528651606484015286516000946001600160a01b031693632679fb5f938a938a93899360840190602080870191028083838d5b83811015610858578181015183820152602001610840565b505050509050019450505050506040805180830381600087803b15801561087e57600080fd5b505af1158015610892573d6000803e3d6000fd5b505050506040513d60408110156108a857600080fd5b50602001516040805163e597461960e01b815233600482015290519192506001600160a01b0385169163e5974619918491602480830192600092919082900301818588803b1580156108f957600080fd5b505af115801561090d573d6000803e3d6000fd5b5050604080513381526001600160a01b0388166020820152808201869052905160008051602061290a83398151915294509081900360600192509050a15050505050565b6000851180156109615750600183115b801561097557506001600160a01b03821615155b6109b4576040805162461bcd60e51b815260206004820181905260248201526000805160206129ca833981519152604482015290519081900360640190fd5b838360001981018181106109c457fe5b905060200201356001600160a01b03166001600160a01b0316826001600160a01b0316636f307dc36040518163ffffffff1660e01b815260040160206040518083038186803b158015610a1657600080fd5b505afa158015610a2a573d6000803e3d6000fd5b505050506040513d6020811015610a4057600080fd5b50516001600160a01b031614610a875760405162461bcd60e51b81526004018080602001828103825260278152602001806129706027913960400191505060405180910390fd5b610ac333308787876000818110610a9a57fe5b905060200201356001600160a01b03166001600160a01b03166123c7909392919063ffffffff16565b600154610b07906001600160a01b0316868686600081610adf57fe5b905060200201356001600160a01b03166001600160a01b03166124279092919063ffffffff16565b60015460405163bc88167960e01b81526004810187815260448201849052606060248301908152606483018790526000936001600160a01b03169263bc881679928a928a928a9289929091608401856020860280828437600081840152601f19601f820116905080830192505050955050505050506040805180830381600087803b158015610b9557600080fd5b505af1158015610ba9573d6000803e3d6000fd5b505050506040513d6040811015610bbf57600080fd5b50602001519050610bdb838287876000198101818110610adf57fe5b604080516304c11f0360e31b81523360048201526024810183905290516001600160a01b03851691632608f8189160448083019260209291908290030181600087803b158015610c2a57600080fd5b505af1158015610c3e573d6000803e3d6000fd5b505050506040513d6020811015610c5457600080fd5b5050604080513381526001600160a01b0385166020820152808201839052905160008051602061290a8339815191529181900360600190a1505050505050565b6000610c9e6110f9565b610cdd576040805162461bcd60e51b81526020600482018190526024820152600080516020612950833981519152604482015290519081900360640190fd5b6001600160a01b03841615801590610cfd57506001600160a01b03831615155b8015610d095750600082115b610d5a576040805162461bcd60e51b815260206004820152601d60248201527f4c697175696461746f723a20496e76616c696420706172616d65746572000000604482015290519081900360640190fd5b604080516370a0823160e01b8152306004820152905185916001600160a01b038316916370a0823191602480820192602092909190829003018186803b158015610da357600080fd5b505afa158015610db7573d6000803e3d6000fd5b505050506040513d6020811015610dcd57600080fd5b5051831115610e4b57604080516370a0823160e01b815230600482015290516001600160a01b038316916370a08231916024808301926020929190829003018186803b158015610e1c57600080fd5b505afa158015610e30573d6000803e3d6000fd5b505050506040513d6020811015610e4657600080fd5b505192505b610e656001600160a01b038216858563ffffffff61253f16565b50909392505050565b600183118015610e8657506001600160a01b03821615155b610ec5576040805162461bcd60e51b815260206004820181905260248201526000805160206129ca833981519152604482015290519081900360640190fd5b83836000198101818110610ed557fe5b905060200201356001600160a01b03166001600160a01b0316826001600160a01b0316636f307dc36040518163ffffffff1660e01b815260040160206040518083038186803b158015610f2757600080fd5b505afa158015610f3b573d6000803e3d6000fd5b505050506040513d6020811015610f5157600080fd5b50516001600160a01b031614610f985760405162461bcd60e51b81526004018080602001828103825260278152602001806129706027913960400191505060405180910390fd5b604080516305eff7ef60e21b815233600482015290516000916001600160a01b038516916317bfdfbc9160248082019260209290919082900301818787803b158015610fe357600080fd5b505af1158015610ff7573d6000803e3d6000fd5b505050506040513d602081101561100d57600080fd5b50516040805160208781028281018201909352878252929350611052929091889188918291850190849080828437600092019190915250879250859150869050611d56565b5050505050565b6110616110f9565b6110a0576040805162461bcd60e51b81526020600482018190526024820152600080516020612950833981519152604482015290519081900360640190fd5b600080546040516001600160a01b03909116907f8be0079c531659141344cd1fd0a4f28419497f9722a3daafe3b4186f6b6457e0908390a3600080546001600160a01b0319169055565b6000546001600160a01b031690565b600080546001600160a01b031661110e612591565b6001600160a01b031614905090565b60008211801561112e575060018451115b801561114257506001600160a01b03831615155b611181576040805162461bcd60e51b815260206004820181905260248201526000805160206129ca833981519152604482015290519081900360640190fd5b600154604080516303e21fa960e61b815290516060926001600160a01b03169163f887ea40916004808301926020929190829003018186803b1580156111c657600080fd5b505afa1580156111da573d6000803e3d6000fd5b505050506040513d60208110156111f057600080fd5b5051604080516307c0329d60e21b815260048101868152602482019283528851604483015288516001600160a01b0390941693631f00ca749388938b93926064909101906020858101910280838360005b83811015611259578181015183820152602001611241565b50505050905001935050505060006040518083038186803b15801561127d57600080fd5b505afa158015611291573d6000803e3d6000fd5b505050506040513d6000823e601f3d908101601f1916820160405260208110156112ba57600080fd5b8101908080516040519392919084600160201b8211156112d957600080fd5b9083019060208201858111156112ee57600080fd5b82518660208202830111600160201b8211171561130a57600080fd5b82525081516020918201928201910280838360005b8381101561133757818101518382015260200161131f565b505050509050016040525050509050818160008151811061135457fe5b602002602001015111156113995760405162461bcd60e51b81526004018080602001828103825260338152602001806129976033913960400191505060405180910390fd5b6113c03330836000815181106113ab57fe5b60200260200101518860008151811061078657fe5b60015481516113f3916001600160a01b03169083906000906113de57fe5b6020026020010151876000815181106107c757fe5b60015460405163694279e560e01b815260048101858152604482018590526060602483019081528851606484015288516000946001600160a01b03169363694279e59389938c938a9360840190602080870191028083838d5b8381101561146457818101518382015260200161144c565b505050509050019450505050506040805180830381600087803b15801561148a57600080fd5b505af115801561149e573d6000803e3d6000fd5b505050506040513d60408110156114b457600080fd5b50602001516040805163e597461960e01b815233600482015290519192506001600160a01b0387169163e5974619918491602480830192600092919082900301818588803b15801561150557600080fd5b505af1158015611519573d6000803e3d6000fd5b5050604080513381526001600160a01b038a166020820152808201869052905160008051602061290a83398151915294509081900360600192509050a1505050505050565b60018311801561157657506001600160a01b03821615155b6115b5576040805162461bcd60e51b815260206004820181905260248201526000805160206129ca833981519152604482015290519081900360640190fd5b604080516305eff7ef60e21b815233600482015290516000916001600160a01b038516916317bfdfbc9160248082019260209290919082900301818787803b15801561160057600080fd5b505af1158015611614573d6000803e3d6000fd5b505050506040513d602081101561162a57600080fd5b5051604080516020878102828101820190935287825292935061105292909188918891829185019084908082843760009201919091525087925085915086905061111d565b60018311801561168757506001600160a01b03821615155b6116c6576040805162461bcd60e51b815260206004820181905260248201526000805160206129ca833981519152604482015290519081900360640190fd5b60015460408051639712341560e01b81526024810184905260048101918252604481018690526000926001600160a01b03169163971234159134918991899188918190606401856020860280828437600081840152601f19601f82011690508083019250505094505050505060408051808303818588803b15801561174a57600080fd5b505af115801561175e573d6000803e3d6000fd5b50505050506040513d604081101561177557600080fd5b50602001519050611791838287876000198101818110610adf57fe5b604080516304c11f0360e31b81523360048201526024810183905290516001600160a01b03851691632608f8189160448083019260209291908290030181600087803b1580156117e057600080fd5b505af11580156117f4573d6000803e3d6000fd5b505050506040513d602081101561180a57600080fd5b5050604080513381526001600160a01b0385166020820152808201839052905160008051602061290a8339815191529181900360600190a15050505050565b60018211801561186157506001600160a01b03811615155b6118a0576040805162461bcd60e51b815260206004820181905260248201526000805160206129ca833981519152604482015290519081900360640190fd5b604080516305eff7ef60e21b815233600482015290516000916001600160a01b038416916317bfdfbc9160248082019260209290919082900301818787803b1580156118eb57600080fd5b505af11580156118ff573d6000803e3d6000fd5b505050506040513d602081101561191557600080fd5b5051600154604080516303e21fa960e61b815290519293506060926001600160a01b039092169163f887ea4091600480820192602092909190829003018186803b15801561196257600080fd5b505afa158015611976573d6000803e3d6000fd5b505050506040513d602081101561198c57600080fd5b5051604080516307c0329d60e21b81526004810185815260248201928352604482018890526001600160a01b0390931692631f00ca749286928a928a929091606401846020850280828437600081840152601f19601f82011690508083019250505094505050505060006040518083038186803b158015611a0c57600080fd5b505afa158015611a20573d6000803e3d6000fd5b505050506040513d6000823e601f3d908101601f191682016040526020811015611a4957600080fd5b8101908080516040519392919084600160201b821115611a6857600080fd5b908301906020820185811115611a7d57600080fd5b82518660208202830111600160201b82111715611a9957600080fd5b82525081516020918201928201910280838360005b83811015611ac6578181015183820152602001611aae565b50505050905001604052505050905080600081518110611ae257fe5b6020026020010151341015611b3e576040805162461bcd60e51b815260206004820181905260248201527f537761705265706179546f6f6c3a20455448206973206e6f7420656e6f756768604482015290519081900360640190fd5b60015481516000916001600160a01b031690639c79d60f9084908490611b6057fe5b6020026020010151858989346040518663ffffffff1660e01b815260040180858152602001806020018381526020018281038252858582818152602001925060200280828437600081840152601f19601f8201169050808301925050509550505050505060408051808303818588803b158015611bdc57600080fd5b505af1158015611bf0573d6000803e3d6000fd5b50505050506040513d6040811015611c0757600080fd5b50602001519050611c23848288886000198101818110610adf57fe5b604080516304c11f0360e31b81523360048201526024810183905290516001600160a01b03861691632608f8189160448083019260209291908290030181600087803b158015611c7257600080fd5b505af1158015611c86573d6000803e3d6000fd5b505050506040513d6020811015611c9c57600080fd5b5050604080513381526001600160a01b0386166020820152808201839052905160008051602061290a8339815191529181900360600190a13482600081518110611ce257fe5b60200260200101511015611d4e57336001600160a01b03166108fc611d2484600081518110611d0d57fe5b60200260200101513461259590919063ffffffff16565b6040518115909202916000818181858888f19350505050158015611d4c573d6000803e3d6000fd5b505b505050505050565b600082118015611d67575060018451115b8015611d7b57506001600160a01b03831615155b611dba576040805162461bcd60e51b815260206004820181905260248201526000805160206129ca833981519152604482015290519081900360640190fd5b83600185510381518110611dca57fe5b60200260200101516001600160a01b0316836001600160a01b0316636f307dc36040518163ffffffff1660e01b815260040160206040518083038186803b158015611e1457600080fd5b505afa158015611e28573d6000803e3d6000fd5b505050506040513d6020811015611e3e57600080fd5b50516001600160a01b031614611e855760405162461bcd60e51b81526004018080602001828103825260278152602001806129706027913960400191505060405180910390fd5b600154604080516303e21fa960e61b815290516060926001600160a01b03169163f887ea40916004808301926020929190829003018186803b158015611eca57600080fd5b505afa158015611ede573d6000803e3d6000fd5b505050506040513d6020811015611ef457600080fd5b5051604080516307c0329d60e21b815260048101868152602482019283528851604483015288516001600160a01b0390941693631f00ca749388938b93926064909101906020858101910280838360005b83811015611f5d578181015183820152602001611f45565b50505050905001935050505060006040518083038186803b158015611f8157600080fd5b505afa158015611f95573d6000803e3d6000fd5b505050506040513d6000823e601f3d908101601f191682016040526020811015611fbe57600080fd5b8101908080516040519392919084600160201b821115611fdd57600080fd5b908301906020820185811115611ff257600080fd5b82518660208202830111600160201b8211171561200e57600080fd5b82525081516020918201928201910280838360005b8381101561203b578181015183820152602001612023565b505050509050016040525050509050818160008151811061205857fe5b6020026020010151111561209d5760405162461bcd60e51b81526004018080602001828103825260338152602001806129976033913960400191505060405180910390fd5b6120af3330836000815181106113ab57fe5b60015481516120cd916001600160a01b03169083906000906113de57fe5b6001546040516304842b9960e11b815260048101858152604482018590526060602483019081528851606484015288516000946001600160a01b03169363090857329389938c938a9360840190602080870191028083838d5b8381101561213e578181015183820152602001612126565b505050509050019450505050506040805180830381600087803b15801561216457600080fd5b505af1158015612178573d6000803e3d6000fd5b505050506040513d604081101561218e57600080fd5b506020015186519091506121b09086908390899060001981019081106107c757fe5b604080516304c11f0360e31b81523360048201526024810183905290516001600160a01b03871691632608f8189160448083019260209291908290030181600087803b1580156121ff57600080fd5b505af1158015612213573d6000803e3d6000fd5b505050506040513d602081101561222957600080fd5b5050604080513381526001600160a01b0387166020820152808201839052905160008051602061290a8339815191529181900360600190a1505050505050565b6122716110f9565b6122b0576040805162461bcd60e51b81526020600482018190526024820152600080516020612950833981519152604482015290519081900360640190fd5b6122b9816125de565b50565b6001546001600160a01b031681565b60006122d56110f9565b612314576040805162461bcd60e51b81526020600482018190526024820152600080516020612950833981519152604482015290519081900360640190fd5b6001600160a01b0383161580159061232c5750600082115b61237d576040805162461bcd60e51b815260206004820152601d60248201527f4c697175696461746f723a20496e76616c696420706172616d65746572000000604482015290519081900360640190fd5b47821115612389574791505b6040516001600160a01b0384169083156108fc029084906000818181858888f193505050501580156123bf573d6000803e3d6000fd5b509092915050565b604080516001600160a01b0385811660248301528416604482015260648082018490528251808303909101815260849091019091526020810180516001600160e01b03166323b872dd60e01b17905261242190859061267e565b50505050565b8015806124ad575060408051636eb1769f60e11b81523060048201526001600160a01b03848116602483015291519185169163dd62ed3e91604480820192602092909190829003018186803b15801561247f57600080fd5b505afa158015612493573d6000803e3d6000fd5b505050506040513d60208110156124a957600080fd5b5051155b6124e85760405162461bcd60e51b8152600401808060200182810382526036815260200180612a146036913960400191505060405180910390fd5b604080516001600160a01b038416602482015260448082018490528251808303909101815260649091019091526020810180516001600160e01b031663095ea7b360e01b17905261253a90849061267e565b505050565b604080516001600160a01b038416602482015260448082018490528251808303909101815260649091019091526020810180516001600160e01b031663a9059cbb60e01b17905261253a90849061267e565b3390565b60006125d783836040518060400160405280601e81526020017f536166654d6174683a207375627472616374696f6e206f766572666c6f770000815250612836565b9392505050565b6001600160a01b0381166126235760405162461bcd60e51b815260040180806020018281038252602681526020018061292a6026913960400191505060405180910390fd5b600080546040516001600160a01b03808516939216917f8be0079c531659141344cd1fd0a4f28419497f9722a3daafe3b4186f6b6457e091a3600080546001600160a01b0319166001600160a01b0392909216919091179055565b612690826001600160a01b03166128cd565b6126e1576040805162461bcd60e51b815260206004820152601f60248201527f5361666545524332303a2063616c6c20746f206e6f6e2d636f6e747261637400604482015290519081900360640190fd5b60006060836001600160a01b0316836040518082805190602001908083835b6020831061271f5780518252601f199092019160209182019101612700565b6001836020036101000a0380198251168184511680821785525050505050509050019150506000604051808303816000865af19150503d8060008114612781576040519150601f19603f3d011682016040523d82523d6000602084013e612786565b606091505b5091509150816127dd576040805162461bcd60e51b815260206004820181905260248201527f5361666545524332303a206c6f772d6c6576656c2063616c6c206661696c6564604482015290519081900360640190fd5b805115612421578080602001905160208110156127f957600080fd5b50516124215760405162461bcd60e51b815260040180806020018281038252602a8152602001806129ea602a913960400191505060405180910390fd5b600081848411156128c55760405162461bcd60e51b81526004018080602001828103825283818151815260200191508051906020019080838360005b8381101561288a578181015183820152602001612872565b50505050905090810190601f1680156128b75780820380516001836020036101000a031916815260200191505b509250505060405180910390fd5b505050900390565b6000813f7fc5d2460186f7233c927e7db2dcc703c0e500b653ca82273b7bfad8045d85a47081158015906129015750808214155b94935050505056feaf95fb1740af31cce8432e372742b26f078254abe409e02c1443e18f7fffb9784f776e61626c653a206e6577206f776e657220697320746865207a65726f20616464726573734f776e61626c653a2063616c6c6572206973206e6f7420746865206f776e657263746f6b656e20756e6465726c79696e67206973206e6f742073776170206f757420746f6b656e537761705265706179546f6f6c3a20616d6f756e74496e2069732067726561746572207468616e20616d6f756e74496e4d6178537761705265706179546f6f6c3a20496e76616c696420706172616d657465725361666545524332303a204552433230206f7065726174696f6e20646964206e6f7420737563636565645361666545524332303a20617070726f76652066726f6d206e6f6e2d7a65726f20746f206e6f6e2d7a65726f20616c6c6f77616e6365a265627a7a723158204fdb6b6adc7c67c2dd06e8ed4e6b30908f660a9703c595c8ccdfb79e4a21f07364736f6c63430005100032",
  "source": "// SPDX-License-Identifier: MIT\npragma solidity >=0.4.22 <0.8.0;\n\nimport \"./SwapWrapper.sol\";\nimport \"./dependency.sol\";\nimport \"./compound/CTokenInterfaces.sol\";\nimport \"./compound/CEther.sol\";\nimport \"./uniswap/IUniswapV2Router02.sol\";\n\ncontract SwapRepayTool is Ownable {\n    using SafeERC20 for IERC20;\n    using SafeMath for uint256;\n\n    SwapWrapper public swapWrapper;\n\n    event Repayed(address borrower, address token, uint256 amount);\n\n    constructor(address payable _swapWrapper) public {\n        swapWrapper = SwapWrapper(_swapWrapper);\n    }\n\n    function swapExactERC20RepayERC20(uint256 amountIn, address[] calldata path, address repayCToken, uint256 amountOutMin) external {\n        require(amountIn > 0 && path.length > 1 && repayCToken != address(0), \"SwapRepayTool: Invalid parameter\");\n        require(CErc20Interface(repayCToken).underlying() == path[path.length - 1], \"ctoken underlying is not swap out token\");\n\n        IERC20(path[0]).safeTransferFrom(msg.sender, address(this), amountIn);\n        IERC20(path[0]).safeApprove(address(swapWrapper), amountIn);\n\n        (, uint256 ret2) = swapWrapper.swapExactTokensForTokens(amountIn, path, amountOutMin);\n\n        IERC20(path[path.length - 1]).safeApprove(repayCToken, ret2);\n        CErc20Interface(repayCToken).repayBorrowBehalf(msg.sender, ret2);\n        emit Repayed(msg.sender, repayCToken, ret2);\n    }\n\n    function swapERC20RepayExactERC20(address[] memory path, address repayCToken, uint256 repayAmount, uint256 amountInMax) public {\n        require(repayAmount > 0 && path.length > 1 && repayCToken != address(0), \"SwapRepayTool: Invalid parameter\");\n        require(CErc20Interface(repayCToken).underlying() == path[path.length - 1], \"ctoken underlying is not swap out token\");\n\n        uint256[] memory amountsIn = IUniswapV2Router02(swapWrapper.router()).getAmountsIn(repayAmount, path);\n        require(amountsIn[0] <= amountInMax, \"SwapRepayTool: amountIn is greater than amountInMax\");\n        IERC20(path[0]).safeTransferFrom(msg.sender, address(this), amountsIn[0]);\n        IERC20(path[0]).safeApprove(address(swapWrapper), amountsIn[0]);\n\n        (, uint256 ret2) = swapWrapper.swapTokensForExactTokens(repayAmount, path, amountInMax);\n\n        IERC20(path[path.length - 1]).safeApprove(repayCToken, ret2);\n        CErc20Interface(repayCToken).repayBorrowBehalf(msg.sender, ret2);\n        emit Repayed(msg.sender, repayCToken, ret2);\n    }\n\n    function swapExactERC20RepayETH(uint256 amountIn, address[] memory path, address CEtherAddress, uint256 amountOutMin) public {\n        require(amountIn > 0 && path.length > 1 && CEtherAddress != address(0), \"SwapRepayTool: Invalid parameter\");\n\n        IERC20(path[0]).safeTransferFrom(msg.sender, address(this), amountIn);\n        IERC20(path[0]).safeApprove(address(swapWrapper), amountIn);\n\n        (, uint256 ret2) = swapWrapper.swapExactTokensForETH(amountIn, path, amountOutMin);\n\n        CEther(CEtherAddress).repayBorrowBehalf.value(ret2)(msg.sender);\n        emit Repayed(msg.sender, CEtherAddress, ret2);\n    }\n\n    function swapERC20RepayExactETH(address[] memory path, address CEtherAddress, uint256 repayAmount, uint256 amountInMax) public {\n        require(repayAmount > 0 && path.length > 1 && CEtherAddress != address(0), \"SwapRepayTool: Invalid parameter\");\n\n        uint256[] memory amountsIn = IUniswapV2Router02(swapWrapper.router()).getAmountsIn(repayAmount, path);\n        require(amountsIn[0] <= amountInMax, \"SwapRepayTool: amountIn is greater than amountInMax\");\n        IERC20(path[0]).safeTransferFrom(msg.sender, address(this), amountsIn[0]);\n        IERC20(path[0]).safeApprove(address(swapWrapper), amountsIn[0]);\n\n        (, uint256 ret2) = swapWrapper.swapTokensForExactETH(repayAmount, path, amountInMax);\n\n        CEther(CEtherAddress).repayBorrowBehalf.value(ret2)(msg.sender);\n        emit Repayed(msg.sender, CEtherAddress, ret2);\n    }\n\n    function swapERC20RepayERC20All(address[] calldata path, address repayCToken, uint256 amountInMax) external {\n        require(path.length > 1 && repayCToken != address(0), \"SwapRepayTool: Invalid parameter\");\n        require(CErc20Interface(repayCToken).underlying() == path[path.length - 1], \"ctoken underlying is not swap out token\");\n\n        uint256 borrowAmount = CTokenInterface(repayCToken).borrowBalanceCurrent(msg.sender);\n        swapERC20RepayExactERC20(path, repayCToken, borrowAmount, amountInMax);\n    }\n\n    function swapERC20RepayETHAll(address[] calldata path, address CEtherAddress, uint256 amountInMax) external {\n        require(path.length > 1 && CEtherAddress != address(0), \"SwapRepayTool: Invalid parameter\");\n        uint256 borrowAmount = CEther(CEtherAddress).borrowBalanceCurrent(msg.sender);\n        swapERC20RepayExactETH(path, CEtherAddress, borrowAmount, amountInMax);\n    }\n\n    function swapETHRepayERC20All(address[] calldata path, address repayCToken) external payable {\n        require(path.length > 1 && repayCToken != address(0), \"SwapRepayTool: Invalid parameter\");\n\n        uint256 borrowAmount = CTokenInterface(repayCToken).borrowBalanceCurrent(msg.sender);\n        uint256[] memory amountsIn = IUniswapV2Router02(swapWrapper.router()).getAmountsIn(borrowAmount, path);\n        require(msg.value >= amountsIn[0], \"SwapRepayTool: ETH is not enough\");\n\n        (, uint256 ret2) = swapWrapper.swapETHForExactTokens.value(amountsIn[0])(borrowAmount, path, msg.value);\n\n        IERC20(path[path.length - 1]).safeApprove(repayCToken, ret2);\n        CErc20Interface(repayCToken).repayBorrowBehalf(msg.sender, ret2);\n        emit Repayed(msg.sender, repayCToken, ret2);\n\n        // send ETH back\n        if (amountsIn[0] < msg.value) {\n            msg.sender.transfer(msg.value.sub(amountsIn[0]));\n        }\n    }\n\n    function swapExactETHRepayERC20(address[] calldata path, address repayCToken, uint256 amountOutMin) external payable {\n        require(path.length > 1 && repayCToken != address(0), \"SwapRepayTool: Invalid parameter\");\n\n        (, uint256 ret2) = swapWrapper.swapExactETHForTokens.value(msg.value)(path, amountOutMin);\n\n        IERC20(path[path.length - 1]).safeApprove(repayCToken, ret2);\n        CErc20Interface(repayCToken).repayBorrowBehalf(msg.sender, ret2);\n        emit Repayed(msg.sender, repayCToken, ret2);\n    }\n\n    function() external payable {}\n\n    function withdrawERC20(address _token, address _account, uint256 amount) public onlyOwner returns (uint256) {\n        require(_token != address(0) && _account != address(0) && amount > 0, \"Liquidator: Invalid parameter\");\n        IERC20 token = IERC20(_token);\n        if (amount > token.balanceOf(address(this))) {\n            amount = token.balanceOf(address(this));\n        }\n        token.safeTransfer(_account, amount);\n        return amount;\n    }\n\n    function withdraw(address payable _account, uint256 amount) public onlyOwner returns (uint256) {\n        require(_account != address(0) && amount > 0, \"Liquidator: Invalid parameter\");\n        if (amount > address(this).balance) {\n            amount = address(this).balance;\n        }\n        _account.transfer(amount);\n        return amount;\n    }\n}\n\n",
  "sourcePath": "/Users/huahua/repo/truffle/liquidator/contracts/SwapRepayTool.sol",
  "compiler": {
    "name": "solc",
    "version": "0.5.16+commit.9c3226ce.Emscripten.clang"
  },
  "schemaVersion": "3.3.2",
  "updatedAt": "2021-03-19T02:35:17.187Z",
  "devdoc": {
    "methods": {
      "isOwner()": {
        "details": "Returns true if the caller is the current owner."
      },
      "owner()": {
        "details": "Returns the address of the current owner."
      },
      "renounceOwnership()": {
        "details": "Leaves the contract without owner. It will not be possible to call `onlyOwner` functions anymore. Can only be called by the current owner.     * NOTE: Renouncing ownership will leave the contract without an owner, thereby removing any functionality that is only available to the owner."
      },
      "transferOwnership(address)": {
        "details": "Transfers ownership of the contract to a new account (`newOwner`). Can only be called by the current owner."
      }
    }
  },
  "userdoc": {
    "methods": {}
  }
}