{
  "contractName": "MultipleProposal",
  "abi": [
    {
      "inputs": [
        {
          "internalType": "address",
          "name": "_governance",
          "type": "address"
        },
        {
          "internalType": "address",
          "name": "_pool",
          "type": "address"
        },
        {
          "internalType": "uint256",
          "name": "_startHeight",
          "type": "uint256"
        },
        {
          "internalType": "uint256",
          "name": "_finishHeight",
          "type": "uint256"
        },
        {
          "internalType": "string",
          "name": "_title",
          "type": "string"
        },
        {
          "internalType": "string",
          "name": "_link",
          "type": "string"
        },
        {
          "internalType": "string",
          "name": "_description",
          "type": "string"
        },
        {
          "internalType": "uint256",
          "name": "_itemCount",
          "type": "uint256"
        }
      ],
      "payable": false,
      "stateMutability": "nonpayable",
      "type": "constructor"
    },
    {
      "anonymous": false,
      "inputs": [
        {
          "indexed": false,
          "internalType": "address",
          "name": "account",
          "type": "address"
        },
        {
          "indexed": false,
          "internalType": "uint256[]",
          "name": "voteItems",
          "type": "uint256[]"
        },
        {
          "indexed": false,
          "internalType": "uint256[]",
          "name": "ratios",
          "type": "uint256[]"
        }
      ],
      "name": "Voted",
      "type": "event"
    },
    {
      "constant": true,
      "inputs": [],
      "name": "description",
      "outputs": [
        {
          "internalType": "string",
          "name": "",
          "type": "string"
        }
      ],
      "payable": false,
      "stateMutability": "view",
      "type": "function"
    },
    {
      "constant": true,
      "inputs": [],
      "name": "enableContractVote",
      "outputs": [
        {
          "internalType": "bool",
          "name": "",
          "type": "bool"
        }
      ],
      "payable": false,
      "stateMutability": "view",
      "type": "function"
    },
    {
      "constant": true,
      "inputs": [],
      "name": "finishHeight",
      "outputs": [
        {
          "internalType": "uint256",
          "name": "",
          "type": "uint256"
        }
      ],
      "payable": false,
      "stateMutability": "view",
      "type": "function"
    },
    {
      "constant": true,
      "inputs": [],
      "name": "getVoteItemCount",
      "outputs": [
        {
          "internalType": "uint256",
          "name": "",
          "type": "uint256"
        }
      ],
      "payable": false,
      "stateMutability": "view",
      "type": "function"
    },
    {
      "constant": true,
      "inputs": [],
      "name": "getVoterCount",
      "outputs": [
        {
          "internalType": "uint256",
          "name": "",
          "type": "uint256"
        }
      ],
      "payable": false,
      "stateMutability": "view",
      "type": "function"
    },
    {
      "constant": true,
      "inputs": [],
      "name": "governance",
      "outputs": [
        {
          "internalType": "address",
          "name": "",
          "type": "address"
        }
      ],
      "payable": false,
      "stateMutability": "view",
      "type": "function"
    },
    {
      "constant": true,
      "inputs": [],
      "name": "insurancePool",
      "outputs": [
        {
          "internalType": "contract NoMintRewardPool",
          "name": "",
          "type": "address"
        }
      ],
      "payable": false,
      "stateMutability": "view",
      "type": "function"
    },
    {
      "constant": true,
      "inputs": [
        {
          "internalType": "address",
          "name": "account",
          "type": "address"
        }
      ],
      "name": "isGovernance",
      "outputs": [
        {
          "internalType": "bool",
          "name": "",
          "type": "bool"
        }
      ],
      "payable": false,
      "stateMutability": "view",
      "type": "function"
    },
    {
      "constant": true,
      "inputs": [
        {
          "internalType": "uint256",
          "name": "",
          "type": "uint256"
        }
      ],
      "name": "itemContents",
      "outputs": [
        {
          "internalType": "string",
          "name": "",
          "type": "string"
        }
      ],
      "payable": false,
      "stateMutability": "view",
      "type": "function"
    },
    {
      "constant": true,
      "inputs": [],
      "name": "link",
      "outputs": [
        {
          "internalType": "string",
          "name": "",
          "type": "string"
        }
      ],
      "payable": false,
      "stateMutability": "view",
      "type": "function"
    },
    {
      "constant": true,
      "inputs": [],
      "name": "poolSnapshot",
      "outputs": [
        {
          "internalType": "uint256",
          "name": "",
          "type": "uint256"
        }
      ],
      "payable": false,
      "stateMutability": "view",
      "type": "function"
    },
    {
      "constant": false,
      "inputs": [
        {
          "internalType": "bool",
          "name": "enable",
          "type": "bool"
        }
      ],
      "name": "setEnableContractVote",
      "outputs": [],
      "payable": false,
      "stateMutability": "nonpayable",
      "type": "function"
    },
    {
      "constant": false,
      "inputs": [
        {
          "internalType": "address",
          "name": "_governance",
          "type": "address"
        }
      ],
      "name": "setGovernance",
      "outputs": [],
      "payable": false,
      "stateMutability": "nonpayable",
      "type": "function"
    },
    {
      "constant": false,
      "inputs": [
        {
          "internalType": "uint256",
          "name": "index",
          "type": "uint256"
        },
        {
          "internalType": "string",
          "name": "content",
          "type": "string"
        }
      ],
      "name": "setItemContent",
      "outputs": [],
      "payable": false,
      "stateMutability": "nonpayable",
      "type": "function"
    },
    {
      "constant": true,
      "inputs": [],
      "name": "startHeight",
      "outputs": [
        {
          "internalType": "uint256",
          "name": "",
          "type": "uint256"
        }
      ],
      "payable": false,
      "stateMutability": "view",
      "type": "function"
    },
    {
      "constant": true,
      "inputs": [],
      "name": "title",
      "outputs": [
        {
          "internalType": "string",
          "name": "",
          "type": "string"
        }
      ],
      "payable": false,
      "stateMutability": "view",
      "type": "function"
    },
    {
      "constant": true,
      "inputs": [
        {
          "internalType": "uint256",
          "name": "",
          "type": "uint256"
        }
      ],
      "name": "totalVotes",
      "outputs": [
        {
          "internalType": "uint256",
          "name": "",
          "type": "uint256"
        }
      ],
      "payable": false,
      "stateMutability": "view",
      "type": "function"
    },
    {
      "constant": true,
      "inputs": [
        {
          "internalType": "uint256",
          "name": "",
          "type": "uint256"
        }
      ],
      "name": "voterList",
      "outputs": [
        {
          "internalType": "address",
          "name": "",
          "type": "address"
        }
      ],
      "payable": false,
      "stateMutability": "view",
      "type": "function"
    },
    {
      "constant": false,
      "inputs": [
        {
          "internalType": "uint256[]",
          "name": "voteItems",
          "type": "uint256[]"
        },
        {
          "internalType": "uint256[]",
          "name": "ratios",
          "type": "uint256[]"
        }
      ],
      "name": "vote",
      "outputs": [],
      "payable": false,
      "stateMutability": "nonpayable",
      "type": "function"
    },
    {
      "constant": true,
      "inputs": [
        {
          "internalType": "address",
          "name": "voter",
          "type": "address"
        }
      ],
      "name": "exist",
      "outputs": [
        {
          "internalType": "bool",
          "name": "",
          "type": "bool"
        }
      ],
      "payable": false,
      "stateMutability": "view",
      "type": "function"
    },
    {
      "constant": true,
      "inputs": [
        {
          "internalType": "address",
          "name": "voter",
          "type": "address"
        }
      ],
      "name": "getVoteDetail",
      "outputs": [
        {
          "internalType": "uint256[]",
          "name": "",
          "type": "uint256[]"
        },
        {
          "internalType": "uint256[]",
          "name": "",
          "type": "uint256[]"
        }
      ],
      "payable": false,
      "stateMutability": "view",
      "type": "function"
    }
  ],
  "bytecode": "0x60806040526000600955600a805460ff191660011790553480156200002357600080fd5b5060405162001df338038062001df383398181016040526101008110156200004a57600080fd5b81516020830151604080850151606086015160808701805193519597949692959194919392820192846401000000008211156200008657600080fd5b9083019060208201858111156200009c57600080fd5b8251640100000000811182820188101715620000b757600080fd5b82525081516020918201929091019080838360005b83811015620000e6578181015183820152602001620000cc565b50505050905090810190601f168015620001145780820380516001836020036101000a031916815260200191505b50604052602001805160405193929190846401000000008211156200013857600080fd5b9083019060208201858111156200014e57600080fd5b82516401000000008111828201881017156200016957600080fd5b82525081516020918201929091019080838360005b83811015620001985781810151838201526020016200017e565b50505050905090810190601f168015620001c65780820380516001836020036101000a031916815260200191505b5060405260200180516040519392919084640100000000821115620001ea57600080fd5b9083019060208201858111156200020057600080fd5b82516401000000008111828201881017156200021b57600080fd5b82525081516020918201929091019080838360005b838110156200024a57818101518382015260200162000230565b50505050905090810190601f168015620002785780820380516001836020036101000a031916815260200191505b5060405260200151915088905087878787878787876001600160a01b038116620002e9576040805162461bcd60e51b815260206004820152601d60248201527f676f7665726e616e63652073686f756c646e277420626520656d707479000000604482015290519081900360640190fd5b600080546001600160a01b0319166001600160a01b03928316179055871662000359576040805162461bcd60e51b815260206004820152601660248201527f696e737572616e636520706f6f6c206973207a65726f00000000000000000000604482015290519081900360640190fd5b84861080156200036857504385115b620003a55760405162461bcd60e51b815260040180806020018281038252602881526020018062001dcb6028913960400191505060405180910390fd5b600680546001600160a01b0319166001600160a01b038916179055600486905560058590558351620003df90600190602087019062000555565b508251620003f590600290602086019062000555565b5081516200040b90600390602085019062000555565b50600660009054906101000a90046001600160a01b03166001600160a01b0316635fcbd2856040518163ffffffff1660e01b815260040160206040518083038186803b1580156200045b57600080fd5b505afa15801562000470573d6000803e3d6000fd5b505050506040513d60208110156200048757600080fd5b5051600a80546001600160a01b0390921661010002610100600160a81b0319909216919091179055604080518281526020838102820101909152818015620004e457816020015b6060815260200190600190039081620004ce5790505b508051620004fb91600791602090910190620005da565b508060405190808252806020026020018201604052801562000527578160200160208202803883390190505b5080516200053e916008916020909101906200063a565b50505050505050505050505050505050506200070a565b828054600181600116156101000203166002900490600052602060002090601f016020900481019282601f106200059857805160ff1916838001178555620005c8565b82800160010185558215620005c8579182015b82811115620005c8578251825591602001919060010190620005ab565b50620005d692915062000677565b5090565b8280548282559060005260206000209081019282156200062c579160200282015b828111156200062c57825180516200061b91849160209091019062000555565b5091602001919060010190620005fb565b50620005d692915062000697565b828054828255906000526020600020908101928215620005c85791602002820182811115620005c8578251825591602001919060010190620005ab565b6200069491905b80821115620005d657600081556001016200067e565b90565b6200069491905b80821115620005d6576000620006b58282620006bf565b506001016200069e565b50805460018160011615610100020316600290046000825580601f10620006e7575062000707565b601f01602090049060005260206000209081019062000707919062000677565b50565b6116b1806200071a6000396000f3fe608060405234801561001057600080fd5b50600436106101375760003560e01c80637113f1bd116100b8578063a62e010d1161007c578063a62e010d146103f3578063ab033ea9146103fb578063ab2adc0014610421578063c885798c14610429578063dee1f0e4146104e8578063f4d046eb1461050e57610137565b80637113f1bd1461028b5780637284e416146103045780637fc384671461030c5780638733ece714610314578063945e3e76146103d657610137565b806337bcb3e1116100ff57806337bcb3e1146102005780634a79d50c1461021c5780634dfefc4b1461022457806350e2e8af1461024a5780635aa6e6751461028357610137565b806311174a291461013c57806319e6e158146101565780631c4695f414610173578063257d2801146101f057806326a6557a146101f8575b600080fd5b61014461052d565b60408051918252519081900360200190f35b6101446004803603602081101561016c57600080fd5b5035610534565b61017b610552565b6040805160208082528351818301528351919283929083019185019080838360005b838110156101b557818101518382015260200161019d565b50505050905090810190601f1680156101e25780820380516001836020036101000a031916815260200191505b509250505060405180910390f35b6101446105dd565b6101446105e3565b6102086105e9565b604080519115158252519081900360200190f35b61017b6105f2565b6102086004803603602081101561023a57600080fd5b50356001600160a01b031661064c565b6102676004803603602081101561026057600080fd5b50356106d1565b604080516001600160a01b039092168252519081900360200190f35b6102676106f8565b610302600480360360408110156102a157600080fd5b813591908101906040810160208201356401000000008111156102c357600080fd5b8201836020820111156102d557600080fd5b803590602001918460018302840111640100000000831117156102f757600080fd5b509092509050610707565b005b61017b61081f565b61014461087a565b6103026004803603604081101561032a57600080fd5b81019060208101813564010000000081111561034557600080fd5b82018360208201111561035757600080fd5b8035906020019184602083028401116401000000008311171561037957600080fd5b91939092909160208101903564010000000081111561039757600080fd5b8201836020820111156103a957600080fd5b803590602001918460208302840111640100000000831117156103cb57600080fd5b509092509050610880565b61017b600480360360208110156103ec57600080fd5b5035610fe4565b610144611057565b6103026004803603602081101561041157600080fd5b50356001600160a01b031661105d565b61026761110f565b61044f6004803603602081101561043f57600080fd5b50356001600160a01b031661111e565b604051808060200180602001838103835285818151815260200191508051906020019060200280838360005b8381101561049357818101518382015260200161047b565b50505050905001838103825284818151815260200191508051906020019060200280838360005b838110156104d25781810151838201526020016104ba565b5050505090500194505050505060405180910390f35b610208600480360360208110156104fe57600080fd5b50356001600160a01b0316611244565b6103026004803603602081101561052457600080fd5b50351515611258565b600b545b90565b6008818154811061054157fe5b600091825260209091200154905081565b6002805460408051602060018416156101000260001901909316849004601f810184900484028201840190925281815292918301828280156105d55780601f106105aa576101008083540402835291602001916105d5565b820191906000526020600020905b8154815290600101906020018083116105b857829003601f168201915b505050505081565b60055481565b60045481565b600a5460ff1681565b60018054604080516020600284861615610100026000190190941693909304601f810184900484028201840190925281815292918301828280156105d55780601f106105aa576101008083540402835291602001916105d5565b600b54600090158061067b5750600b546001600160a01b0383166000908152600c602052604090206002015410155b15610688575060006106cc565b6001600160a01b0382166000818152600c6020526040902060020154600b805490919081106106b357fe5b6000918252602090912001546001600160a01b03161490505b919050565b600b81815481106106de57fe5b6000918252602090912001546001600160a01b0316905081565b6000546001600160a01b031681565b61071033611244565b610752576040805162461bcd60e51b815260206004820152600e60248201526d4e6f7420676f7665726e616e636560901b604482015290519081900360640190fd5b60045443106107a8576040805162461bcd60e51b815260206004820152601e60248201527f43616e6e6f74206265206d6f6469666965642061667465722073746172740000604482015290519081900360640190fd5b60075483106107f3576040805162461bcd60e51b81526020600482015260126024820152711a5d195b481a5b99195e081a5b1b1959d85b60721b604482015290519081900360640190fd5b81816007858154811061080257fe5b90600052602060002001919061081992919061146a565b50505050565b6003805460408051602060026001851615610100026000190190941693909304601f810184900484028201840190925281815292918301828280156105d55780601f106105aa576101008083540402835291602001916105d5565b60095481565b600a546006546040805163201323c760e11b815290516109f4936001600160a01b036101009091048116936370a0823193911691634026478e91600480820192602092909190829003018186803b1580156108da57600080fd5b505afa1580156108ee573d6000803e3d6000fd5b505050506040513d602081101561090457600080fd5b5051604080516001600160e01b031960e085901b1681526001600160a01b039092166004830152516024808301926020929190829003018186803b15801561094b57600080fd5b505afa15801561095f573d6000803e3d6000fd5b505050506040513d602081101561097557600080fd5b5051600654604080516318160ddd60e01b815290516001600160a01b03909216916318160ddd91600480820192602092909190829003018186803b1580156109bc57600080fd5b505afa1580156109d0573d6000803e3d6000fd5b505050506040513d60208110156109e657600080fd5b50519063ffffffff6112b616565b6009556004544310801590610a0b57506005544311155b610a465760405162461bcd60e51b81526004018080602001828103825260268152602001806116576026913960400191505060405180910390fd5b600a5460ff1680610a5c5750610a5a611319565b155b610a975760405162461bcd60e51b815260040180806020018281038252602d8152602001806115e7602d913960400191505060405180910390fd5b8215801590610aa857506008548311155b8015610ab357508281145b610aee5760405162461bcd60e51b81526004018080602001828103825260238152602001806115996023913960400191505060405180910390fd5b600654604080516370a0823160e01b815233600482015290516000926001600160a01b0316916370a08231916024808301926020929190829003018186803b158015610b3957600080fd5b505afa158015610b4d573d6000803e3d6000fd5b505050506040513d6020811015610b6357600080fd5b505111610ba15760405162461bcd60e51b81526004018080602001828103825260228152602001806116146022913960400191505060405180910390fd5b610baa3361064c565b15610bfc576040805162461bcd60e51b815260206004820152601f60248201527f4d756c7469706c6550726f706f73616c3a20616c726561647920766f74656400604482015290519081900360640190fd5b604080518481526020808602820101909152838015610c25578160200160208202803883390190505b50336000908152600c602090815260409091208251610c4e9360019092019291909101906114e8565b50600b805460018101825560009182527f0175b7a638427703f0dbe7bb9bbf987a2551717b34e79f33b5b1008d1fa01db9810180546001600160a01b03191633908117909155600754600654604080516370a0823160e01b8152600481019490945251939493610d22936001600160a01b0392909216916370a08231916024808301926020929190829003018186803b158015610cea57600080fd5b505afa158015610cfe573d6000803e3d6000fd5b505050506040513d6020811015610d1457600080fd5b50519063ffffffff61133216565b90506000805b86811015610ec157600854888883818110610d3f57fe5b9050602002013510610d98576040805162461bcd60e51b815260206004820152601e60248201527f4d756c7469706c6550726f706f73616c3a206e6f207375636820766f74650000604482015290519081900360640190fd5b610dd5670de0b6b3a7640000610dc9888885818110610db357fe5b905060200201358661133290919063ffffffff16565b9063ffffffff61138b16565b336000908152600c60205260409020600101805483908110610df357fe5b6000918252602080832090910192909255338152600c909152604090206001018054610e67919083908110610e2457fe5b906000526020600020015460088a8a85818110610e3d57fe5b9050602002013581548110610e4e57fe5b90600052602060002001546112b690919063ffffffff16565b6008898984818110610e7557fe5b9050602002013581548110610e8657fe5b600091825260209091200155610eb7868683818110610ea157fe5b90506020020135836112b690919063ffffffff16565b9150600101610d28565b50670de0b6b3a7640000811115610f095760405162461bcd60e51b815260040180806020018281038252602b8152602001806115bc602b913960400191505060405180910390fd5b336000908152600c60205260409020610f23908888611523565b50336000818152600c6020908152604091829020600201869055815183815260608183018181529082018b90527f9b41ae45bdcf31ab65a7e226c789d9b0f5a7fa2db611f03fc7b344ebc669e07694938c938c938c938c939192909183019060808401908890880280828437600083820152601f01601f19169091018481038352858152602090810191508690860280828437600083820152604051601f909101601f1916909201829003995090975050505050505050a150505050505050565b60078181548110610ff157fe5b600091825260209182902001805460408051601f60026000196101006001871615020190941693909304928301859004850281018501909152818152935090918301828280156105d55780601f106105aa576101008083540402835291602001916105d5565b60085490565b61106633611244565b6110a8576040805162461bcd60e51b815260206004820152600e60248201526d4e6f7420676f7665726e616e636560901b604482015290519081900360640190fd5b6001600160a01b0381166110ed5760405162461bcd60e51b81526004018080602001828103825260218152602001806115786021913960400191505060405180910390fd5b600080546001600160a01b0319166001600160a01b0392909216919091179055565b6006546001600160a01b031681565b60608061112a8361064c565b61117b576040805162461bcd60e51b815260206004820152601e60248201527f4d756c7469706c6550726f706f73616c3a206e6f7420766f7465207965740000604482015290519081900360640190fd5b6001600160a01b0383166000908152600c6020908152604091829020600181018054845181850281018501909552808552909391928491908301828280156111e257602002820191906000526020600020905b8154815260200190600101908083116111ce575b505050505091508080548060200260200160405190810160405280929190818152602001828054801561123457602002820191906000526020600020905b815481526020019060010190808311611220575b5050505050905091509150915091565b6000546001600160a01b0390811691161490565b61126133611244565b6112a3576040805162461bcd60e51b815260206004820152600e60248201526d4e6f7420676f7665726e616e636560901b604482015290519081900360640190fd5b600a805460ff1916911515919091179055565b600082820183811015611310576040805162461bcd60e51b815260206004820152601b60248201527f536166654d6174683a206164646974696f6e206f766572666c6f770000000000604482015290519081900360640190fd5b90505b92915050565b60003233141561132a57600061132d565b60015b905090565b60008261134157506000611313565b8282028284828161134e57fe5b04146113105760405162461bcd60e51b81526004018080602001828103825260218152602001806116366021913960400191505060405180910390fd5b600061131083836040518060400160405280601a81526020017f536166654d6174683a206469766973696f6e206279207a65726f000000000000815250600081836114545760405162461bcd60e51b81526004018080602001828103825283818151815260200191508051906020019080838360005b83811015611419578181015183820152602001611401565b50505050905090810190601f1680156114465780820380516001836020036101000a031916815260200191505b509250505060405180910390fd5b50600083858161146057fe5b0495945050505050565b828054600181600116156101000203166002900490600052602060002090601f016020900481019282601f106114ab5782800160ff198235161785556114d8565b828001600101855582156114d8579182015b828111156114d85782358255916020019190600101906114bd565b506114e492915061155d565b5090565b8280548282559060005260206000209081019282156114d8579160200282015b828111156114d8578251825591602001919060010190611508565b8280548282559060005260206000209081019282156114d857916020028201828111156114d85782358255916020019190600101906114bd565b61053191905b808211156114e4576000815560010161156356fe6e657720676f7665726e616e63652073686f756c646e277420626520656d7074794d756c7469706c6550726f706f73616c3a20696e76616c696420706172616d657465724d756c7469706c6550726f706f73616c3a20526174696f206d757374206265206c657373207468616e20314d756c7469706c6550726f706f73616c3a20736d61727420636f6e74726163742063616e206e6f7420766f74654d756c7469706c6550726f706f73616c3a204e6f20766f74696e6720726967687473536166654d6174683a206d756c7469706c69636174696f6e206f766572666c6f774d756c7469706c6550726f706f73616c3a206e6f7420696e20766f74696e6720706572696f64a265627a7a723158206be0944754e3f92a3d2d60ea4433af0f9524baa1c5e6d52713ac743285f70de364736f6c63430005100032737461727420686569676874206f722066696e6973682068656967687420697320696c6c6567616c",
  "source": "// SPDX-License-Identifier: MIT\npragma solidity ^0.5.0;\n\nimport \"./ProposalBase.sol\";\n\ncontract MultipleProposal is ProposalBase {\n\n    struct VoterEntity {\n        uint256[] voteItems;\n        uint256[] amounts;\n        uint index;\n    }\n\n    mapping(address => VoterEntity) voterEntities;\n\n    event Voted(address account, uint256[] voteItems, uint256[] ratios);\n\n    constructor(address _governance,\n        address _pool,\n        uint256 _startHeight,\n        uint256 _finishHeight,\n        string memory _title,\n        string memory _link,\n        string memory _description,\n        uint256 _itemCount) public\n        ProposalBase(_governance, _pool, _startHeight, _finishHeight, _title, _link, _description, _itemCount)\n    {}\n\n    function vote(uint256[] calldata voteItems, uint256[] calldata ratios) external updatePoolSnapshot {\n        require(block.number >= startHeight && block.number <= finishHeight, \"MultipleProposal: not in voting period\");\n        require(enableContractVote || !isSmartContract(), \"MultipleProposal: smart contract can not vote\");\n        require(voteItems.length > 0 && voteItems.length <= totalVotes.length && voteItems.length == ratios.length, \"MultipleProposal: invalid parameter\");\n        require(insurancePool.balanceOf(msg.sender) > 0, \"MultipleProposal: No voting rights\");\n        require(!exist(msg.sender), \"MultipleProposal: already voted\");\n\n        voterEntities[msg.sender].amounts = new uint256[](voteItems.length);\n\n        uint index = voterList.push(msg.sender) - 1;\n        uint256 total = insurancePool.balanceOf(msg.sender).mul(itemContents.length);\n        uint256 ratio = 0;\n        for (uint i = 0; i < voteItems.length; i++) {\n            require(voteItems[i] < totalVotes.length, \"MultipleProposal: no such vote\");\n            voterEntities[msg.sender].amounts[i] = total.mul(ratios[i]).div(1e18);\n            totalVotes[voteItems[i]] = totalVotes[voteItems[i]].add(voterEntities[msg.sender].amounts[i]);\n            ratio = ratio.add(ratios[i]);\n        }\n\n        require(ratio <= 1e18, \"MultipleProposal: Ratio must be less than 1\");\n\n        voterEntities[msg.sender].voteItems = voteItems;\n        voterEntities[msg.sender].index = index;\n\n        emit Voted(msg.sender, voteItems, ratios);\n    }\n\n    function exist(address voter) public view returns (bool) {\n        if(voterList.length == 0 || voterEntities[voter].index >= voterList.length) return false;\n        return (voterList[voterEntities[voter].index] == voter);\n    }\n\n    function getVoteDetail(address voter) external view returns (uint256[] memory, uint256[] memory) {\n        require(exist(voter), \"MultipleProposal: not vote yet\");\n        return (voterEntities[voter].amounts, voterEntities[voter].voteItems);\n    }\n\n}\n",
  "sourcePath": "/Users/huahua/repo/truffle/daovoting/contracts/MultipleProposal.sol",
  "compiler": {
    "name": "solc",
    "version": "0.5.16+commit.9c3226ce.Emscripten.clang"
  },
  "schemaVersion": "3.3.2",
  "updatedAt": "2021-03-14T03:49:48.587Z",
  "networkType": "ethereum",
  "devdoc": {
    "methods": {}
  },
  "userdoc": {
    "methods": {}
  }
}