{
  "contractName": "Proposal",
  "abi": [
    {
      "inputs": [
        {
          "internalType": "address",
          "name": "_governance",
          "type": "address"
        },
        {
          "internalType": "address",
          "name": "_pool",
          "type": "address"
        },
        {
          "internalType": "uint256",
          "name": "_startHeight",
          "type": "uint256"
        },
        {
          "internalType": "uint256",
          "name": "_finishHeight",
          "type": "uint256"
        },
        {
          "internalType": "string",
          "name": "_title",
          "type": "string"
        },
        {
          "internalType": "string",
          "name": "_link",
          "type": "string"
        },
        {
          "internalType": "string",
          "name": "_description",
          "type": "string"
        },
        {
          "internalType": "uint256",
          "name": "_itemCount",
          "type": "uint256"
        }
      ],
      "payable": false,
      "stateMutability": "nonpayable",
      "type": "constructor"
    },
    {
      "anonymous": false,
      "inputs": [
        {
          "indexed": false,
          "internalType": "address",
          "name": "voter",
          "type": "address"
        },
        {
          "indexed": false,
          "internalType": "uint256",
          "name": "amount",
          "type": "uint256"
        },
        {
          "indexed": false,
          "internalType": "uint256",
          "name": "index",
          "type": "uint256"
        }
      ],
      "name": "Voted",
      "type": "event"
    },
    {
      "anonymous": false,
      "inputs": [
        {
          "indexed": false,
          "internalType": "address",
          "name": "voter",
          "type": "address"
        },
        {
          "indexed": false,
          "internalType": "uint256",
          "name": "amount",
          "type": "uint256"
        },
        {
          "indexed": false,
          "internalType": "uint256",
          "name": "index",
          "type": "uint256"
        }
      ],
      "name": "revoked",
      "type": "event"
    },
    {
      "constant": true,
      "inputs": [],
      "name": "description",
      "outputs": [
        {
          "internalType": "string",
          "name": "",
          "type": "string"
        }
      ],
      "payable": false,
      "stateMutability": "view",
      "type": "function"
    },
    {
      "constant": true,
      "inputs": [],
      "name": "enableContractVote",
      "outputs": [
        {
          "internalType": "bool",
          "name": "",
          "type": "bool"
        }
      ],
      "payable": false,
      "stateMutability": "view",
      "type": "function"
    },
    {
      "constant": true,
      "inputs": [],
      "name": "finishHeight",
      "outputs": [
        {
          "internalType": "uint256",
          "name": "",
          "type": "uint256"
        }
      ],
      "payable": false,
      "stateMutability": "view",
      "type": "function"
    },
    {
      "constant": true,
      "inputs": [],
      "name": "getVoteItemCount",
      "outputs": [
        {
          "internalType": "uint256",
          "name": "",
          "type": "uint256"
        }
      ],
      "payable": false,
      "stateMutability": "view",
      "type": "function"
    },
    {
      "constant": true,
      "inputs": [],
      "name": "getVoterCount",
      "outputs": [
        {
          "internalType": "uint256",
          "name": "",
          "type": "uint256"
        }
      ],
      "payable": false,
      "stateMutability": "view",
      "type": "function"
    },
    {
      "constant": true,
      "inputs": [],
      "name": "governance",
      "outputs": [
        {
          "internalType": "address",
          "name": "",
          "type": "address"
        }
      ],
      "payable": false,
      "stateMutability": "view",
      "type": "function"
    },
    {
      "constant": true,
      "inputs": [],
      "name": "insurancePool",
      "outputs": [
        {
          "internalType": "contract NoMintRewardPool",
          "name": "",
          "type": "address"
        }
      ],
      "payable": false,
      "stateMutability": "view",
      "type": "function"
    },
    {
      "constant": true,
      "inputs": [
        {
          "internalType": "address",
          "name": "account",
          "type": "address"
        }
      ],
      "name": "isGovernance",
      "outputs": [
        {
          "internalType": "bool",
          "name": "",
          "type": "bool"
        }
      ],
      "payable": false,
      "stateMutability": "view",
      "type": "function"
    },
    {
      "constant": true,
      "inputs": [
        {
          "internalType": "uint256",
          "name": "",
          "type": "uint256"
        }
      ],
      "name": "itemContents",
      "outputs": [
        {
          "internalType": "string",
          "name": "",
          "type": "string"
        }
      ],
      "payable": false,
      "stateMutability": "view",
      "type": "function"
    },
    {
      "constant": true,
      "inputs": [],
      "name": "link",
      "outputs": [
        {
          "internalType": "string",
          "name": "",
          "type": "string"
        }
      ],
      "payable": false,
      "stateMutability": "view",
      "type": "function"
    },
    {
      "constant": true,
      "inputs": [],
      "name": "poolSnapshot",
      "outputs": [
        {
          "internalType": "uint256",
          "name": "",
          "type": "uint256"
        }
      ],
      "payable": false,
      "stateMutability": "view",
      "type": "function"
    },
    {
      "constant": false,
      "inputs": [
        {
          "internalType": "bool",
          "name": "enable",
          "type": "bool"
        }
      ],
      "name": "setEnableContractVote",
      "outputs": [],
      "payable": false,
      "stateMutability": "nonpayable",
      "type": "function"
    },
    {
      "constant": false,
      "inputs": [
        {
          "internalType": "address",
          "name": "_governance",
          "type": "address"
        }
      ],
      "name": "setGovernance",
      "outputs": [],
      "payable": false,
      "stateMutability": "nonpayable",
      "type": "function"
    },
    {
      "constant": false,
      "inputs": [
        {
          "internalType": "uint256",
          "name": "index",
          "type": "uint256"
        },
        {
          "internalType": "string",
          "name": "content",
          "type": "string"
        }
      ],
      "name": "setItemContent",
      "outputs": [],
      "payable": false,
      "stateMutability": "nonpayable",
      "type": "function"
    },
    {
      "constant": true,
      "inputs": [],
      "name": "startHeight",
      "outputs": [
        {
          "internalType": "uint256",
          "name": "",
          "type": "uint256"
        }
      ],
      "payable": false,
      "stateMutability": "view",
      "type": "function"
    },
    {
      "constant": true,
      "inputs": [],
      "name": "title",
      "outputs": [
        {
          "internalType": "string",
          "name": "",
          "type": "string"
        }
      ],
      "payable": false,
      "stateMutability": "view",
      "type": "function"
    },
    {
      "constant": true,
      "inputs": [
        {
          "internalType": "uint256",
          "name": "",
          "type": "uint256"
        }
      ],
      "name": "totalVotes",
      "outputs": [
        {
          "internalType": "uint256",
          "name": "",
          "type": "uint256"
        }
      ],
      "payable": false,
      "stateMutability": "view",
      "type": "function"
    },
    {
      "constant": true,
      "inputs": [
        {
          "internalType": "uint256",
          "name": "",
          "type": "uint256"
        }
      ],
      "name": "voterList",
      "outputs": [
        {
          "internalType": "address",
          "name": "",
          "type": "address"
        }
      ],
      "payable": false,
      "stateMutability": "view",
      "type": "function"
    },
    {
      "constant": false,
      "inputs": [
        {
          "internalType": "uint256",
          "name": "voteItem",
          "type": "uint256"
        }
      ],
      "name": "vote",
      "outputs": [],
      "payable": false,
      "stateMutability": "nonpayable",
      "type": "function"
    },
    {
      "constant": false,
      "inputs": [],
      "name": "revoke",
      "outputs": [],
      "payable": false,
      "stateMutability": "nonpayable",
      "type": "function"
    },
    {
      "constant": true,
      "inputs": [
        {
          "internalType": "address",
          "name": "voter",
          "type": "address"
        }
      ],
      "name": "exist",
      "outputs": [
        {
          "internalType": "bool",
          "name": "",
          "type": "bool"
        }
      ],
      "payable": false,
      "stateMutability": "view",
      "type": "function"
    },
    {
      "constant": true,
      "inputs": [
        {
          "internalType": "address",
          "name": "voter",
          "type": "address"
        }
      ],
      "name": "getVoteDetail",
      "outputs": [
        {
          "internalType": "uint256",
          "name": "amount",
          "type": "uint256"
        },
        {
          "internalType": "uint256",
          "name": "voteItem",
          "type": "uint256"
        }
      ],
      "payable": false,
      "stateMutability": "view",
      "type": "function"
    }
  ],
  "bytecode": "0x60806040526000600955600a805460ff191660011790553480156200002357600080fd5b5060405162001bc238038062001bc283398181016040526101008110156200004a57600080fd5b81516020830151604080850151606086015160808701805193519597949692959194919392820192846401000000008211156200008657600080fd5b9083019060208201858111156200009c57600080fd5b8251640100000000811182820188101715620000b757600080fd5b82525081516020918201929091019080838360005b83811015620000e6578181015183820152602001620000cc565b50505050905090810190601f168015620001145780820380516001836020036101000a031916815260200191505b50604052602001805160405193929190846401000000008211156200013857600080fd5b9083019060208201858111156200014e57600080fd5b82516401000000008111828201881017156200016957600080fd5b82525081516020918201929091019080838360005b83811015620001985781810151838201526020016200017e565b50505050905090810190601f168015620001c65780820380516001836020036101000a031916815260200191505b5060405260200180516040519392919084640100000000821115620001ea57600080fd5b9083019060208201858111156200020057600080fd5b82516401000000008111828201881017156200021b57600080fd5b82525081516020918201929091019080838360005b838110156200024a57818101518382015260200162000230565b50505050905090810190601f168015620002785780820380516001836020036101000a031916815260200191505b5060405260200151915088905087878787878787876001600160a01b038116620002e9576040805162461bcd60e51b815260206004820152601d60248201527f676f7665726e616e63652073686f756c646e277420626520656d707479000000604482015290519081900360640190fd5b600080546001600160a01b0319166001600160a01b03928316179055871662000359576040805162461bcd60e51b815260206004820152601660248201527f696e737572616e636520706f6f6c206973207a65726f00000000000000000000604482015290519081900360640190fd5b84861080156200036857504385115b620003a55760405162461bcd60e51b815260040180806020018281038252602881526020018062001b9a6028913960400191505060405180910390fd5b600680546001600160a01b0319166001600160a01b038916179055600486905560058590558351620003df90600190602087019062000555565b508251620003f590600290602086019062000555565b5081516200040b90600390602085019062000555565b50600660009054906101000a90046001600160a01b03166001600160a01b0316635fcbd2856040518163ffffffff1660e01b815260040160206040518083038186803b1580156200045b57600080fd5b505afa15801562000470573d6000803e3d6000fd5b505050506040513d60208110156200048757600080fd5b5051600a80546001600160a01b0390921661010002610100600160a81b0319909216919091179055604080518281526020838102820101909152818015620004e457816020015b6060815260200190600190039081620004ce5790505b508051620004fb91600791602090910190620005da565b508060405190808252806020026020018201604052801562000527578160200160208202803883390190505b5080516200053e916008916020909101906200063a565b50505050505050505050505050505050506200070a565b828054600181600116156101000203166002900490600052602060002090601f016020900481019282601f106200059857805160ff1916838001178555620005c8565b82800160010185558215620005c8579182015b82811115620005c8578251825591602001919060010190620005ab565b50620005d692915062000677565b5090565b8280548282559060005260206000209081019282156200062c579160200282015b828111156200062c57825180516200061b91849160209091019062000555565b5091602001919060010190620005fb565b50620005d692915062000697565b828054828255906000526020600020908101928215620005c85791602002820182811115620005c8578251825591602001919060010190620005ab565b6200069491905b80821115620005d657600081556001016200067e565b90565b6200069491905b80821115620005d6576000620006b58282620006bf565b506001016200069e565b50805460018160011615610100020316600290046000825580601f10620006e7575062000707565b601f01602090049060005260206000209081019062000707919062000677565b50565b611480806200071a6000396000f3fe608060405234801561001057600080fd5b50600436106101425760003560e01c80637113f1bd116100b8578063ab033ea91161007c578063ab033ea914610361578063ab2adc0014610387578063b6549f751461038f578063c885798c14610397578063dee1f0e4146103d6578063f4d046eb146103fc57610142565b80637113f1bd146102b55780637284e4161461032c5780637fc3846714610334578063945e3e761461033c578063a62e010d1461035957610142565b806326a6557a1161010a57806326a6557a1461022257806337bcb3e11461022a5780634a79d50c146102465780634dfefc4b1461024e57806350e2e8af146102745780635aa6e675146102ad57610142565b80630121b93f1461014757806311174a291461016657806319e6e158146101805780631c4695f41461019d578063257d28011461021a575b600080fd5b6101646004803603602081101561015d57600080fd5b503561041b565b005b61016e6107c4565b60408051918252519081900360200190f35b61016e6004803603602081101561019657600080fd5b50356107cb565b6101a56107e9565b6040805160208082528351818301528351919283929083019185019080838360005b838110156101df5781810151838201526020016101c7565b50505050905090810190601f16801561020c5780820380516001836020036101000a031916815260200191505b509250505060405180910390f35b61016e610874565b61016e61087a565b610232610880565b604080519115158252519081900360200190f35b6101a5610889565b6102326004803603602081101561026457600080fd5b50356001600160a01b03166108e3565b6102916004803603602081101561028a57600080fd5b5035610968565b604080516001600160a01b039092168252519081900360200190f35b61029161098f565b610164600480360360408110156102cb57600080fd5b813591908101906040810160208201356401000000008111156102ed57600080fd5b8201836020820111156102ff57600080fd5b8035906020019184600183028401116401000000008311171561032157600080fd5b50909250905061099e565b6101a5610ab6565b61016e610b11565b6101a56004803603602081101561035257600080fd5b5035610b17565b61016e610b8a565b6101646004803603602081101561037757600080fd5b50356001600160a01b0316610b90565b610291610c42565b610164610c51565b6103bd600480360360208110156103ad57600080fd5b50356001600160a01b0316610da9565b6040805192835260208301919091528051918290030190f35b610232600480360360208110156103ec57600080fd5b50356001600160a01b0316610e1a565b6101646004803603602081101561041257600080fd5b50351515610e2e565b600a546006546040805163201323c760e11b8152905161058f936001600160a01b036101009091048116936370a0823193911691634026478e91600480820192602092909190829003018186803b15801561047557600080fd5b505afa158015610489573d6000803e3d6000fd5b505050506040513d602081101561049f57600080fd5b5051604080516001600160e01b031960e085901b1681526001600160a01b039092166004830152516024808301926020929190829003018186803b1580156104e657600080fd5b505afa1580156104fa573d6000803e3d6000fd5b505050506040513d602081101561051057600080fd5b5051600654604080516318160ddd60e01b815290516001600160a01b03909216916318160ddd91600480820192602092909190829003018186803b15801561055757600080fd5b505afa15801561056b573d6000803e3d6000fd5b505050506040513d602081101561058157600080fd5b50519063ffffffff610e8c16565b60095560045443108015906105a657506005544311155b6105ee576040805162461bcd60e51b81526020600482015260146024820152731b9bdd081a5b881d9bdd1a5b99c81c195c9a5bd960621b604482015290519081900360640190fd5b600a5460ff16806106045750610602610eed565b155b610655576040805162461bcd60e51b815260206004820152601b60248201527f736d61727420636f6e74726163742063616e206e6f7420766f74650000000000604482015290519081900360640190fd5b600854811061069a576040805162461bcd60e51b815260206004820152600c60248201526b4e6f207375636820766f746560a01b604482015290519081900360640190fd5b600654604080516370a0823160e01b815233600482015290516000926001600160a01b0316916370a08231916024808301926020929190829003018186803b1580156106e557600080fd5b505afa1580156106f9573d6000803e3d6000fd5b505050506040513d602081101561070f57600080fd5b505111610756576040805162461bcd60e51b815260206004820152601060248201526f4e6f20766f74696e672072696768747360801b604482015290519081900360640190fd5b6000610761336108e3565b6107735761076e82610f06565b61077c565b61077c82611042565b604080513381526020810183905280820185905290519192507fea66f58e474bc09f580000e81f31b334d171db387d0c6098ba47bd897741679b919081900360600190a15050565b600b545b90565b600881815481106107d857fe5b600091825260209091200154905081565b6002805460408051602060018416156101000260001901909316849004601f8101849004840282018401909252818152929183018282801561086c5780601f106108415761010080835404028352916020019161086c565b820191906000526020600020905b81548152906001019060200180831161084f57829003601f168201915b505050505081565b60055481565b60045481565b600a5460ff1681565b60018054604080516020600284861615610100026000190190941693909304601f8101849004840282018401909252818152929183018282801561086c5780601f106108415761010080835404028352916020019161086c565b600b5460009015806109125750600b546001600160a01b0383166000908152600c602052604090206002015410155b1561091f57506000610963565b6001600160a01b0382166000818152600c6020526040902060020154600b8054909190811061094a57fe5b6000918252602090912001546001600160a01b03161490505b919050565b600b818154811061097557fe5b6000918252602090912001546001600160a01b0316905081565b6000546001600160a01b031681565b6109a733610e1a565b6109e9576040805162461bcd60e51b815260206004820152600e60248201526d4e6f7420676f7665726e616e636560901b604482015290519081900360640190fd5b6004544310610a3f576040805162461bcd60e51b815260206004820152601e60248201527f43616e6e6f74206265206d6f6469666965642061667465722073746172740000604482015290519081900360640190fd5b6007548310610a8a576040805162461bcd60e51b81526020600482015260126024820152711a5d195b481a5b99195e081a5b1b1959d85b60721b604482015290519081900360640190fd5b818160078581548110610a9957fe5b906000526020600020019190610ab0929190611369565b50505050565b6003805460408051602060026001851615610100026000190190941693909304601f8101849004840282018401909252818152929183018282801561086c5780601f106108415761010080835404028352916020019161086c565b60095481565b60078181548110610b2457fe5b600091825260209182902001805460408051601f600260001961010060018716150201909416939093049283018590048502810185019091528181529350909183018282801561086c5780601f106108415761010080835404028352916020019161086c565b60085490565b610b9933610e1a565b610bdb576040805162461bcd60e51b815260206004820152600e60248201526d4e6f7420676f7665726e616e636560901b604482015290519081900360640190fd5b6001600160a01b038116610c205760405162461bcd60e51b815260040180806020018281038252602181526020018061142b6021913960400191505060405180910390fd5b600080546001600160a01b0319166001600160a01b0392909216919091179055565b6006546001600160a01b031681565b600a546006546040805163201323c760e11b81529051610cab936001600160a01b036101009091048116936370a0823193911691634026478e91600480820192602092909190829003018186803b15801561047557600080fd5b6009556004544310801590610cc257506005544311155b610d0a576040805162461bcd60e51b81526020600482015260146024820152731b9bdd081a5b881d9bdd1a5b99c81c195c9a5bd960621b604482015290519081900360640190fd5b610d13336108e3565b610d53576040805162461bcd60e51b815260206004820152600c60248201526b1b9bdd081d9bdd19481e595d60a21b604482015290519081900360640190fd5b600080610d5e611185565b604080513381526020810184905280820183905290519294509092507f11380875c83dea4069a24f58965b2277b7bc64d5f58d9db4f7767e0575c89ff6919081900360600190a15050565b600080610db5836108e3565b610df5576040805162461bcd60e51b815260206004820152600c60248201526b1b9bdd081d9bdd19481e595d60a21b604482015290519081900360640190fd5b50506001600160a01b03166000908152600c6020526040902080546001909101549091565b6000546001600160a01b0390811691161490565b610e3733610e1a565b610e79576040805162461bcd60e51b815260206004820152600e60248201526d4e6f7420676f7665726e616e636560901b604482015290519081900360640190fd5b600a805460ff1916911515919091179055565b600082820183811015610ee6576040805162461bcd60e51b815260206004820152601b60248201527f536166654d6174683a206164646974696f6e206f766572666c6f770000000000604482015290519081900360640190fd5b9392505050565b600032331415610efe576000610f01565b60015b905090565b600b805460018101825560009182527f0175b7a638427703f0dbe7bb9bbf987a2551717b34e79f33b5b1008d1fa01db9810180546001600160a01b03191633908117909155600654604080516370a0823160e01b81526004810193909352516001600160a01b0391909116916370a08231916024808301926020929190829003018186803b158015610f9757600080fd5b505afa158015610fab573d6000803e3d6000fd5b505050506040513d6020811015610fc157600080fd5b5051336000908152600c60205260409020818155600181018590556002018290556008805461100f92919086908110610ff657fe5b9060005260206000200154610e8c90919063ffffffff16565b6008848154811061101c57fe5b6000918252602080832090910192909255338152600c9091526040902054915050919050565b336000908152600c60205260408120805460019091015460088054611084939290811061106b57fe5b906000526020600020015461129590919063ffffffff16565b336000908152600c60205260409020600101546008805490919081106110a657fe5b60009182526020918290200191909155600654604080516370a0823160e01b815233600482015290516001600160a01b03909216926370a0823192602480840193829003018186803b1580156110fb57600080fd5b505afa15801561110f573d6000803e3d6000fd5b505050506040513d602081101561112557600080fd5b5051336000908152600c602052604090208181556001018390556008805461115392919085908110610ff657fe5b6008838154811061116057fe5b6000918252602080832090910192909255338152600c90915260409020549050919050565b336000908152600c602052604090208054600190910154600880546111b09184918490811061106b57fe5b600882815481106111bd57fe5b600091825260209091200155600b54600114156111ed57600b8054906111e79060001983016113e7565b50611291565b336000908152600c6020526040812060020154600b8054919291600019810190811061121557fe5b600091825260209091200154600b80546001600160a01b03909216925082918490811061123e57fe5b600091825260208083209190910180546001600160a01b0319166001600160a01b039485161790559183168152600c90915260409020600201829055600b80549061128d9060001983016113e7565b5050505b9091565b6000610ee683836040518060400160405280601e81526020017f536166654d6174683a207375627472616374696f6e206f766572666c6f770000815250600081848411156113615760405162461bcd60e51b81526004018080602001828103825283818151815260200191508051906020019080838360005b8381101561132657818101518382015260200161130e565b50505050905090810190601f1680156113535780820380516001836020036101000a031916815260200191505b509250505060405180910390fd5b505050900390565b828054600181600116156101000203166002900490600052602060002090601f016020900481019282601f106113aa5782800160ff198235161785556113d7565b828001600101855582156113d7579182015b828111156113d75782358255916020019190600101906113bc565b506113e3929150611410565b5090565b81548183558181111561140b5760008381526020902061140b918101908301611410565b505050565b6107c891905b808211156113e3576000815560010161141656fe6e657720676f7665726e616e63652073686f756c646e277420626520656d707479a265627a7a72315820e22cff07428ef52f1c5ad474710ee89acd662b150c507a96164605ce1942f15864736f6c63430005100032737461727420686569676874206f722066696e6973682068656967687420697320696c6c6567616c",
  "source": "// SPDX-License-Identifier: MIT\npragma solidity ^0.5.0;\n\nimport \"./ProposalBase.sol\";\n\ncontract Proposal is ProposalBase {\n\n    struct VoterEntity {\n        uint256 amount;\n        uint voteItem;\n        uint index;\n    }\n\n    mapping(address => VoterEntity) voterEntities;\n\n    event Voted(address voter, uint256 amount, uint index);\n    event revoked(address voter, uint256 amount, uint index);\n\n    constructor(address _governance,\n        address _pool,\n        uint256 _startHeight,\n        uint256 _finishHeight,\n        string memory _title,\n        string memory _link,\n        string memory _description,\n        uint256 _itemCount) public\n        ProposalBase(_governance, _pool, _startHeight, _finishHeight, _title, _link, _description, _itemCount)\n    {}\n\n    function vote(uint voteItem) external updatePoolSnapshot {\n        require(block.number >= startHeight && block.number <= finishHeight, \"not in voting period\");\n        require(enableContractVote || !isSmartContract(), \"smart contract can not vote\");\n        require(voteItem < totalVotes.length, \"No such vote\");\n        require(insurancePool.balanceOf(msg.sender) > 0, \"No voting rights\");\n\n        uint256 amount = exist(msg.sender) ? update(voteItem) : add(voteItem);\n        emit Voted(msg.sender, amount, voteItem);\n    }\n\n    function revoke() external updatePoolSnapshot {\n        require(block.number >= startHeight && block.number <= finishHeight, \"not in voting period\");\n        require(exist(msg.sender), \"not vote yet\");\n        (uint256 amount, uint voteItem) = remove();\n        emit revoked(msg.sender, amount, voteItem);\n    }\n\n    function exist(address voter) public view returns (bool) {\n        if(voterList.length == 0 || voterEntities[voter].index >= voterList.length) return false;\n        return (voterList[voterEntities[voter].index] == voter);\n    }\n\n    function getVoteDetail(address voter) external view returns (uint256 amount, uint voteItem) {\n        require(exist(voter), \"not vote yet\");\n        return (voterEntities[voter].amount, voterEntities[voter].voteItem);\n    }\n\n    function update(uint voteItem) private returns (uint256) {\n        totalVotes[voterEntities[msg.sender].voteItem] =\n            totalVotes[voterEntities[msg.sender].voteItem].sub(voterEntities[msg.sender].amount);\n\n        voterEntities[msg.sender].amount = insurancePool.balanceOf(msg.sender);\n        voterEntities[msg.sender].voteItem = voteItem;\n        totalVotes[voteItem] = totalVotes[voteItem].add(voterEntities[msg.sender].amount);\n        return voterEntities[msg.sender].amount;\n    }\n\n    function add(uint voteItem) private returns (uint256) {\n        uint index = voterList.push(msg.sender) - 1;\n        voterEntities[msg.sender].amount = insurancePool.balanceOf(msg.sender);\n        voterEntities[msg.sender].voteItem = voteItem;\n        voterEntities[msg.sender].index = index;\n        totalVotes[voteItem] = totalVotes[voteItem].add(voterEntities[msg.sender].amount);\n        return voterEntities[msg.sender].amount;\n    }\n\n    function remove() private returns (uint256 amount, uint voteItem) {\n        amount = voterEntities[msg.sender].amount;\n        voteItem = voterEntities[msg.sender].voteItem;\n\n        totalVotes[voteItem] = totalVotes[voteItem].sub(amount);\n\n        if (voterList.length == 1) {\n            voterList.length--;\n            return (amount, voteItem);\n        }\n        uint rowToDelete = voterEntities[msg.sender].index;\n        address keyToMove = voterList[voterList.length-1];\n        voterList[rowToDelete] = keyToMove;\n        voterEntities[keyToMove].index = rowToDelete;\n        voterList.length--;\n    }\n\n}\n",
  "sourcePath": "/Users/huahua/repo/truffle/daovoting/contracts/Proposal.sol",
  "compiler": {
    "name": "solc",
    "version": "0.5.16+commit.9c3226ce.Emscripten.clang"
  },
  "schemaVersion": "3.3.2",
  "updatedAt": "2021-03-14T03:49:48.570Z",
  "networkType": "ethereum",
  "devdoc": {
    "methods": {}
  },
  "userdoc": {
    "methods": {}
  }
}