{
    "contractName": "Proposal",
    "abi": [
        {
            "inputs": [
                {
                    "internalType": "address",
                    "name": "_governance",
                    "type": "address"
                },
                {
                    "internalType": "address",
                    "name": "_pool",
                    "type": "address"
                },
                {
                    "internalType": "uint256",
                    "name": "_startHeight",
                    "type": "uint256"
                },
                {
                    "internalType": "uint256",
                    "name": "_finishHeight",
                    "type": "uint256"
                },
                {
                    "internalType": "string",
                    "name": "_title",
                    "type": "string"
                },
                {
                    "internalType": "string",
                    "name": "_description",
                    "type": "string"
                },
                {
                    "internalType": "uint256",
                    "name": "_itemCount",
                    "type": "uint256"
                }
            ],
            "payable": false,
            "stateMutability": "nonpayable",
            "type": "constructor"
        },
        {
            "anonymous": false,
            "inputs": [
                {
                    "indexed": false,
                    "internalType": "address",
                    "name": "voter",
                    "type": "address"
                },
                {
                    "indexed": false,
                    "internalType": "uint256",
                    "name": "amount",
                    "type": "uint256"
                },
                {
                    "indexed": false,
                    "internalType": "uint256",
                    "name": "index",
                    "type": "uint256"
                }
            ],
            "name": "Voted",
            "type": "event"
        },
        {
            "anonymous": false,
            "inputs": [
                {
                    "indexed": false,
                    "internalType": "address",
                    "name": "voter",
                    "type": "address"
                },
                {
                    "indexed": false,
                    "internalType": "uint256",
                    "name": "amount",
                    "type": "uint256"
                },
                {
                    "indexed": false,
                    "internalType": "uint256",
                    "name": "index",
                    "type": "uint256"
                }
            ],
            "name": "revoked",
            "type": "event"
        },
        {
            "constant": true,
            "inputs": [],
            "name": "description",
            "outputs": [
                {
                    "internalType": "string",
                    "name": "",
                    "type": "string"
                }
            ],
            "payable": false,
            "stateMutability": "view",
            "type": "function"
        },
        {
            "constant": true,
            "inputs": [],
            "name": "enableContractVote",
            "outputs": [
                {
                    "internalType": "bool",
                    "name": "",
                    "type": "bool"
                }
            ],
            "payable": false,
            "stateMutability": "view",
            "type": "function"
        },
        {
            "constant": true,
            "inputs": [],
            "name": "finishHeight",
            "outputs": [
                {
                    "internalType": "uint256",
                    "name": "",
                    "type": "uint256"
                }
            ],
            "payable": false,
            "stateMutability": "view",
            "type": "function"
        },
        {
            "constant": true,
            "inputs": [],
            "name": "governance",
            "outputs": [
                {
                    "internalType": "address",
                    "name": "",
                    "type": "address"
                }
            ],
            "payable": false,
            "stateMutability": "view",
            "type": "function"
        },
        {
            "constant": true,
            "inputs": [],
            "name": "insurancePool",
            "outputs": [
                {
                    "internalType": "contract NoMintRewardPool",
                    "name": "",
                    "type": "address"
                }
            ],
            "payable": false,
            "stateMutability": "view",
            "type": "function"
        },
        {
            "constant": true,
            "inputs": [
                {
                    "internalType": "address",
                    "name": "account",
                    "type": "address"
                }
            ],
            "name": "isGovernance",
            "outputs": [
                {
                    "internalType": "bool",
                    "name": "",
                    "type": "bool"
                }
            ],
            "payable": false,
            "stateMutability": "view",
            "type": "function"
        },
        {
            "constant": true,
            "inputs": [
                {
                    "internalType": "uint256",
                    "name": "",
                    "type": "uint256"
                }
            ],
            "name": "itemContents",
            "outputs": [
                {
                    "internalType": "string",
                    "name": "",
                    "type": "string"
                }
            ],
            "payable": false,
            "stateMutability": "view",
            "type": "function"
        },
        {
            "constant": true,
            "inputs": [],
            "name": "poolSnapshot",
            "outputs": [
                {
                    "internalType": "uint256",
                    "name": "",
                    "type": "uint256"
                }
            ],
            "payable": false,
            "stateMutability": "view",
            "type": "function"
        },
        {
            "constant": false,
            "inputs": [
                {
                    "internalType": "address",
                    "name": "_governance",
                    "type": "address"
                }
            ],
            "name": "setGovernance",
            "outputs": [],
            "payable": false,
            "stateMutability": "nonpayable",
            "type": "function"
        },
        {
            "constant": true,
            "inputs": [],
            "name": "startHeight",
            "outputs": [
                {
                    "internalType": "uint256",
                    "name": "",
                    "type": "uint256"
                }
            ],
            "payable": false,
            "stateMutability": "view",
            "type": "function"
        },
        {
            "constant": true,
            "inputs": [],
            "name": "title",
            "outputs": [
                {
                    "internalType": "string",
                    "name": "",
                    "type": "string"
                }
            ],
            "payable": false,
            "stateMutability": "view",
            "type": "function"
        },
        {
            "constant": true,
            "inputs": [
                {
                    "internalType": "uint256",
                    "name": "",
                    "type": "uint256"
                }
            ],
            "name": "totalVotes",
            "outputs": [
                {
                    "internalType": "uint256",
                    "name": "",
                    "type": "uint256"
                }
            ],
            "payable": false,
            "stateMutability": "view",
            "type": "function"
        },
        {
            "constant": true,
            "inputs": [
                {
                    "internalType": "uint256",
                    "name": "",
                    "type": "uint256"
                }
            ],
            "name": "voterList",
            "outputs": [
                {
                    "internalType": "address",
                    "name": "",
                    "type": "address"
                }
            ],
            "payable": false,
            "stateMutability": "view",
            "type": "function"
        },
        {
            "constant": false,
            "inputs": [
                {
                    "internalType": "uint256",
                    "name": "index",
                    "type": "uint256"
                },
                {
                    "internalType": "string",
                    "name": "content",
                    "type": "string"
                }
            ],
            "name": "setItemContent",
            "outputs": [],
            "payable": false,
            "stateMutability": "nonpayable",
            "type": "function"
        },
        {
            "constant": true,
            "inputs": [],
            "name": "getVoteItemCount",
            "outputs": [
                {
                    "internalType": "uint256",
                    "name": "",
                    "type": "uint256"
                }
            ],
            "payable": false,
            "stateMutability": "view",
            "type": "function"
        },
        {
            "constant": true,
            "inputs": [],
            "name": "getVoterCount",
            "outputs": [
                {
                    "internalType": "uint256",
                    "name": "",
                    "type": "uint256"
                }
            ],
            "payable": false,
            "stateMutability": "view",
            "type": "function"
        },
        {
            "constant": false,
            "inputs": [
                {
                    "internalType": "uint256",
                    "name": "voteItem",
                    "type": "uint256"
                }
            ],
            "name": "vote",
            "outputs": [],
            "payable": false,
            "stateMutability": "nonpayable",
            "type": "function"
        },
        {
            "constant": false,
            "inputs": [],
            "name": "revoke",
            "outputs": [],
            "payable": false,
            "stateMutability": "nonpayable",
            "type": "function"
        },
        {
            "constant": true,
            "inputs": [
                {
                    "internalType": "address",
                    "name": "voter",
                    "type": "address"
                }
            ],
            "name": "exist",
            "outputs": [
                {
                    "internalType": "bool",
                    "name": "",
                    "type": "bool"
                }
            ],
            "payable": false,
            "stateMutability": "view",
            "type": "function"
        },
        {
            "constant": true,
            "inputs": [
                {
                    "internalType": "address",
                    "name": "voter",
                    "type": "address"
                }
            ],
            "name": "getVoteDetail",
            "outputs": [
                {
                    "internalType": "uint256",
                    "name": "amount",
                    "type": "uint256"
                },
                {
                    "internalType": "uint256",
                    "name": "voteItem",
                    "type": "uint256"
                }
            ],
            "payable": false,
            "stateMutability": "view",
            "type": "function"
        },
        {
            "constant": false,
            "inputs": [
                {
                    "internalType": "bool",
                    "name": "enable",
                    "type": "bool"
                }
            ],
            "name": "setEnableContractVote",
            "outputs": [],
            "payable": false,
            "stateMutability": "nonpayable",
            "type": "function"
        }
    ],
    "bytecode": "0x608060405260006008556009805460ff191660011790553480156200002357600080fd5b5060405162001ae138038062001ae1833981810160405260e08110156200004957600080fd5b81516020830151604080850151606086015160808701805193519597949692959194919392820192846401000000008211156200008557600080fd5b9083019060208201858111156200009b57600080fd5b8251640100000000811182820188101715620000b657600080fd5b82525081516020918201929091019080838360005b83811015620000e5578181015183820152602001620000cb565b50505050905090810190601f168015620001135780820380516001836020036101000a031916815260200191505b50604052602001805160405193929190846401000000008211156200013757600080fd5b9083019060208201858111156200014d57600080fd5b82516401000000008111828201881017156200016857600080fd5b82525081516020918201929091019080838360005b83811015620001975781810151838201526020016200017d565b50505050905090810190601f168015620001c55780820380516001836020036101000a031916815260200191505b506040526020015191508790506001600160a01b0381166200022e576040805162461bcd60e51b815260206004820152601d60248201527f676f7665726e616e63652073686f756c646e277420626520656d707479000000604482015290519081900360640190fd5b600080546001600160a01b0319166001600160a01b0392831617905586166200029e576040805162461bcd60e51b815260206004820152601660248201527f696e737572616e636520706f6f6c206973207a65726f00000000000000000000604482015290519081900360640190fd5b8385108015620002ad57504384115b620002ea5760405162461bcd60e51b815260040180806020018281038252602881526020018062001ab96028913960400191505060405180910390fd5b600580546001600160a01b0319166001600160a01b038816179055600385905560048490558251620003249060019060208601906200047b565b5081516200033a9060029060208501906200047b565b50600560009054906101000a90046001600160a01b03166001600160a01b0316635fcbd2856040518163ffffffff1660e01b815260040160206040518083038186803b1580156200038a57600080fd5b505afa1580156200039f573d6000803e3d6000fd5b505050506040513d6020811015620003b657600080fd5b5051600980546001600160a01b0390921661010002610100600160a81b03199092169190911790556040805182815260208381028201019091528180156200041357816020015b6060815260200190600190039081620003fd5790505b5080516200042a9160069160209091019062000500565b508060405190808252806020026020018201604052801562000456578160200160208202803883390190505b5080516200046d9160079160209091019062000560565b505050505050505062000630565b828054600181600116156101000203166002900490600052602060002090601f016020900481019282601f10620004be57805160ff1916838001178555620004ee565b82800160010185558215620004ee579182015b82811115620004ee578251825591602001919060010190620004d1565b50620004fc9291506200059d565b5090565b82805482825590600052602060002090810192821562000552579160200282015b82811115620005525782518051620005419184916020909101906200047b565b509160200191906001019062000521565b50620004fc929150620005bd565b828054828255906000526020600020908101928215620004ee5791602002820182811115620004ee578251825591602001919060010190620004d1565b620005ba91905b80821115620004fc5760008155600101620005a4565b90565b620005ba91905b80821115620004fc576000620005db8282620005e5565b50600101620005c4565b50805460018160011615610100020316600290046000825580601f106200060d57506200062d565b601f0160209004906000526020600020908101906200062d91906200059d565b50565b61147980620006406000396000f3fe608060405234801561001057600080fd5b50600436106101375760003560e01c80637113f1bd116100b8578063ab033ea91161007c578063ab033ea91461034e578063ab2adc0014610374578063b6549f751461037c578063c885798c14610384578063dee1f0e4146103c3578063f4d046eb146103e957610137565b80637113f1bd146102a25780637284e416146103195780637fc3846714610321578063945e3e7614610329578063a62e010d1461034657610137565b806337bcb3e1116100ff57806337bcb3e1146101a25780634a79d50c146101be5780634dfefc4b1461023b57806350e2e8af146102615780635aa6e6751461029a57610137565b80630121b93f1461013c57806311174a291461015b57806319e6e15814610175578063257d28011461019257806326a6557a1461019a575b600080fd5b6101596004803603602081101561015257600080fd5b5035610408565b005b6101636107b1565b60408051918252519081900360200190f35b6101636004803603602081101561018b57600080fd5b50356107b8565b6101636107d6565b6101636107dc565b6101aa6107e2565b604080519115158252519081900360200190f35b6101c66107eb565b6040805160208082528351818301528351919283929083019185019080838360005b838110156102005781810151838201526020016101e8565b50505050905090810190601f16801561022d5780820380516001836020036101000a031916815260200191505b509250505060405180910390f35b6101aa6004803603602081101561025157600080fd5b50356001600160a01b0316610878565b61027e6004803603602081101561027757600080fd5b50356108fd565b604080516001600160a01b039092168252519081900360200190f35b61027e610924565b610159600480360360408110156102b857600080fd5b813591908101906040810160208201356401000000008111156102da57600080fd5b8201836020820111156102ec57600080fd5b8035906020019184600183028401116401000000008311171561030e57600080fd5b509092509050610933565b6101c6610a4b565b610163610aa3565b6101c66004803603602081101561033f57600080fd5b5035610aa9565b610163610b1c565b6101596004803603602081101561036457600080fd5b50356001600160a01b0316610b22565b61027e610bd4565b610159610be3565b6103aa6004803603602081101561039a57600080fd5b50356001600160a01b0316610da2565b6040805192835260208301919091528051918290030190f35b6101aa600480360360208110156103d957600080fd5b50356001600160a01b0316610e13565b610159600480360360208110156103ff57600080fd5b50351515610e27565b6009546005546040805163201323c760e11b8152905161057c936001600160a01b036101009091048116936370a0823193911691634026478e91600480820192602092909190829003018186803b15801561046257600080fd5b505afa158015610476573d6000803e3d6000fd5b505050506040513d602081101561048c57600080fd5b5051604080516001600160e01b031960e085901b1681526001600160a01b039092166004830152516024808301926020929190829003018186803b1580156104d357600080fd5b505afa1580156104e7573d6000803e3d6000fd5b505050506040513d60208110156104fd57600080fd5b5051600554604080516318160ddd60e01b815290516001600160a01b03909216916318160ddd91600480820192602092909190829003018186803b15801561054457600080fd5b505afa158015610558573d6000803e3d6000fd5b505050506040513d602081101561056e57600080fd5b50519063ffffffff610e8516565b600855600354431080159061059357506004544311155b6105db576040805162461bcd60e51b81526020600482015260146024820152731b9bdd081a5b881d9bdd1a5b99c81c195c9a5bd960621b604482015290519081900360640190fd5b60095460ff16806105f157506105ef610ee6565b155b610642576040805162461bcd60e51b815260206004820152601b60248201527f736d61727420636f6e74726163742063616e206e6f7420766f74650000000000604482015290519081900360640190fd5b6007548110610687576040805162461bcd60e51b815260206004820152600c60248201526b4e6f207375636820766f746560a01b604482015290519081900360640190fd5b600554604080516370a0823160e01b815233600482015290516000926001600160a01b0316916370a08231916024808301926020929190829003018186803b1580156106d257600080fd5b505afa1580156106e6573d6000803e3d6000fd5b505050506040513d60208110156106fc57600080fd5b505111610743576040805162461bcd60e51b815260206004820152601060248201526f4e6f20766f74696e672072696768747360801b604482015290519081900360640190fd5b600061074e33610878565b6107605761075b82610eff565b610769565b6107698261103b565b604080513381526020810183905280820185905290519192507fea66f58e474bc09f580000e81f31b334d171db387d0c6098ba47bd897741679b919081900360600190a15050565b600b545b90565b600781815481106107c557fe5b600091825260209091200154905081565b60045481565b60035481565b60095460ff1681565b60018054604080516020600284861615610100026000190190941693909304601f810184900484028201840190925281815292918301828280156108705780601f1061084557610100808354040283529160200191610870565b820191906000526020600020905b81548152906001019060200180831161085357829003601f168201915b505050505081565b600b5460009015806108a75750600b546001600160a01b0383166000908152600a602052604090206002015410155b156108b4575060006108f8565b6001600160a01b0382166000818152600a6020526040902060020154600b805490919081106108df57fe5b6000918252602090912001546001600160a01b03161490505b919050565b600b818154811061090a57fe5b6000918252602090912001546001600160a01b0316905081565b6000546001600160a01b031681565b61093c33610e13565b61097e576040805162461bcd60e51b815260206004820152600e60248201526d4e6f7420676f7665726e616e636560901b604482015290519081900360640190fd5b60035443106109d4576040805162461bcd60e51b815260206004820152601e60248201527f43616e6e6f74206265206d6f6469666965642061667465722073746172740000604482015290519081900360640190fd5b6006548310610a1f576040805162461bcd60e51b81526020600482015260126024820152711a5d195b481a5b99195e081a5b1b1959d85b60721b604482015290519081900360640190fd5b818160068581548110610a2e57fe5b906000526020600020019190610a45929190611362565b50505050565b6002805460408051602060018416156101000260001901909316849004601f810184900484028201840190925281815292918301828280156108705780601f1061084557610100808354040283529160200191610870565b60085481565b60068181548110610ab657fe5b600091825260209182902001805460408051601f60026000196101006001871615020190941693909304928301859004850281018501909152818152935090918301828280156108705780601f1061084557610100808354040283529160200191610870565b60075490565b610b2b33610e13565b610b6d576040805162461bcd60e51b815260206004820152600e60248201526d4e6f7420676f7665726e616e636560901b604482015290519081900360640190fd5b6001600160a01b038116610bb25760405162461bcd60e51b81526004018080602001828103825260218152602001806114246021913960400191505060405180910390fd5b600080546001600160a01b0319166001600160a01b0392909216919091179055565b6005546001600160a01b031681565b6009546005546040805163201323c760e11b81529051610c3d936001600160a01b036101009091048116936370a0823193911691634026478e91600480820192602092909190829003018186803b15801561046257600080fd5b6008556003544310801590610c5457506004544311155b610c9c576040805162461bcd60e51b81526020600482015260146024820152731b9bdd081a5b881d9bdd1a5b99c81c195c9a5bd960621b604482015290519081900360640190fd5b60095460ff1680610cb25750610cb0610ee6565b155b610d03576040805162461bcd60e51b815260206004820152601b60248201527f736d61727420636f6e74726163742063616e206e6f7420766f74650000000000604482015290519081900360640190fd5b610d0c33610878565b610d4c576040805162461bcd60e51b815260206004820152600c60248201526b1b9bdd081d9bdd19481e595d60a21b604482015290519081900360640190fd5b600080610d5761117e565b604080513381526020810184905280820183905290519294509092507f11380875c83dea4069a24f58965b2277b7bc64d5f58d9db4f7767e0575c89ff6919081900360600190a15050565b600080610dae83610878565b610dee576040805162461bcd60e51b815260206004820152600c60248201526b1b9bdd081d9bdd19481e595d60a21b604482015290519081900360640190fd5b50506001600160a01b03166000908152600a6020526040902080546001909101549091565b6000546001600160a01b0390811691161490565b610e3033610e13565b610e72576040805162461bcd60e51b815260206004820152600e60248201526d4e6f7420676f7665726e616e636560901b604482015290519081900360640190fd5b6009805460ff1916911515919091179055565b600082820183811015610edf576040805162461bcd60e51b815260206004820152601b60248201527f536166654d6174683a206164646974696f6e206f766572666c6f770000000000604482015290519081900360640190fd5b9392505050565b6000323314610ef7575060016107b5565b5060006107b5565b600b805460018101825560009182527f0175b7a638427703f0dbe7bb9bbf987a2551717b34e79f33b5b1008d1fa01db9810180546001600160a01b03191633908117909155600554604080516370a0823160e01b81526004810193909352516001600160a01b0391909116916370a08231916024808301926020929190829003018186803b158015610f9057600080fd5b505afa158015610fa4573d6000803e3d6000fd5b505050506040513d6020811015610fba57600080fd5b5051336000908152600a60205260409020818155600181018590556002018290556007805461100892919086908110610fef57fe5b9060005260206000200154610e8590919063ffffffff16565b6007848154811061101557fe5b6000918252602080832090910192909255338152600a9091526040902054915050919050565b336000908152600a6020526040812080546001909101546007805461107d939290811061106457fe5b906000526020600020015461128e90919063ffffffff16565b336000908152600a602052604090206001015460078054909190811061109f57fe5b60009182526020918290200191909155600554604080516370a0823160e01b815233600482015290516001600160a01b03909216926370a0823192602480840193829003018186803b1580156110f457600080fd5b505afa158015611108573d6000803e3d6000fd5b505050506040513d602081101561111e57600080fd5b5051336000908152600a602052604090208181556001018390556007805461114c92919085908110610fef57fe5b6007838154811061115957fe5b6000918252602080832090910192909255338152600a90915260409020549050919050565b336000908152600a602052604090208054600190910154600780546111a99184918490811061106457fe5b600782815481106111b657fe5b600091825260209091200155600b54600114156111e657600b8054906111e09060001983016113e0565b5061128a565b336000908152600a6020526040812060020154600b8054919291600019810190811061120e57fe5b600091825260209091200154600b80546001600160a01b03909216925082918490811061123757fe5b600091825260208083209190910180546001600160a01b0319166001600160a01b039485161790559183168152600a90915260409020600201829055600b8054906112869060001983016113e0565b5050505b9091565b6000610edf83836040518060400160405280601e81526020017f536166654d6174683a207375627472616374696f6e206f766572666c6f7700008152506000818484111561135a5760405162461bcd60e51b81526004018080602001828103825283818151815260200191508051906020019080838360005b8381101561131f578181015183820152602001611307565b50505050905090810190601f16801561134c5780820380516001836020036101000a031916815260200191505b509250505060405180910390fd5b505050900390565b828054600181600116156101000203166002900490600052602060002090601f016020900481019282601f106113a35782800160ff198235161785556113d0565b828001600101855582156113d0579182015b828111156113d05782358255916020019190600101906113b5565b506113dc929150611409565b5090565b81548183558181111561140457600083815260209020611404918101908301611409565b505050565b6107b591905b808211156113dc576000815560010161140f56fe6e657720676f7665726e616e63652073686f756c646e277420626520656d707479a265627a7a7231582031fa4c1d17d5b29237eb1e491e517951d56191eb245876bd9e57f74fa75d1bcd64736f6c63430005100032737461727420686569676874206f722066696e6973682068656967687420697320696c6c6567616c",
    "source": "// SPDX-License-Identifier: MIT\npragma solidity ^0.5.0;\n\nimport \"./dependence.sol\";\nimport \"./Governable.sol\";\n\ninterface NoMintRewardPool {\n    function balanceOf(address account) external view returns (uint256);\n    function lpToken() external view returns (address);\n    function lockPool() external view returns (address);\n    function totalSupply() external view returns (uint256);\n}\n\ncontract Proposal is Governable {\n    using SafeERC20 for IERC20;\n    using SafeMath for uint256;\n\n    string public title;\n    string public description;\n    uint256 public startHeight;\n    uint256 public finishHeight;\n    NoMintRewardPool public insurancePool;\n\n    string[] public itemContents;\n    uint256[] public totalVotes;\n    uint256 public poolSnapshot = 0;\n\n    bool public enableContractVote = true;\n\n    IERC20 lpToken;\n\n    struct VoterEntity {\n        uint256 amount;\n        uint voteItem;\n        uint index;\n    }\n\n    mapping(address => VoterEntity) voterEntities;\n    address[] public voterList;\n\n    event Voted(address voter, uint256 amount, uint index);\n    event revoked(address voter, uint256 amount, uint index);\n\n    modifier updatePoolSnapshot() {\n        poolSnapshot = insurancePool.totalSupply().add(lpToken.balanceOf(insurancePool.lockPool()));\n        _;\n    }\n\n    constructor(\n        address _governance,\n        address _pool,\n        uint256 _startHeight,\n        uint256 _finishHeight,\n        string memory _title,\n        string memory _description,\n        uint256 _itemCount) public Governable(_governance) {\n\n        require(_pool != address(0), \"insurance pool is zero\");\n        require(_startHeight < _finishHeight && _finishHeight > block.number, \"start height or finish height is illegal\");\n\n        insurancePool = NoMintRewardPool(_pool);\n        startHeight = _startHeight;\n        finishHeight = _finishHeight;\n        title = _title;\n        description = _description;\n        lpToken = IERC20(insurancePool.lpToken());\n\n        itemContents = new string[](_itemCount);\n        totalVotes = new uint256[](_itemCount);\n    }\n\n    function setItemContent(uint index, string calldata content) external onlyGovernance {\n        require(block.number < startHeight, \"Cannot be modified after start\");\n        require(index < itemContents.length, \"item index illegal\");\n        itemContents[index] = content;\n    }\n\n    function getVoteItemCount() external view returns (uint256) {\n        return totalVotes.length;\n    }\n\n    function getVoterCount() external view returns (uint256) {\n        return voterList.length;\n    }\n\n    function vote(uint voteItem) external updatePoolSnapshot {\n        require(block.number >= startHeight && block.number <= finishHeight, \"not in voting period\");\n        require(enableContractVote || !isSmartContract(), \"smart contract can not vote\");\n        require(voteItem < totalVotes.length, \"No such vote\");\n        require(insurancePool.balanceOf(msg.sender) > 0, \"No voting rights\");\n\n        uint256 amount = exist(msg.sender) ? update(voteItem) : add(voteItem);\n        emit Voted(msg.sender, amount, voteItem);\n    }\n\n    function revoke() external updatePoolSnapshot {\n        require(block.number >= startHeight && block.number <= finishHeight, \"not in voting period\");\n        require(enableContractVote || !isSmartContract(), \"smart contract can not vote\");\n        require(exist(msg.sender), \"not vote yet\");\n        (uint256 amount, uint voteItem) = remove();\n        emit revoked(msg.sender, amount, voteItem);\n    }\n\n    function exist(address voter) public view returns (bool) {\n        if(voterList.length == 0 || voterEntities[voter].index >= voterList.length) return false;\n        return (voterList[voterEntities[voter].index] == voter);\n    }\n\n    function getVoteDetail(address voter) external view returns (uint256 amount, uint voteItem) {\n        require(exist(voter), \"not vote yet\");\n        return (voterEntities[voter].amount, voterEntities[voter].voteItem);\n    }\n\n    function update(uint voteItem) private returns (uint256) {\n        totalVotes[voterEntities[msg.sender].voteItem] =\n            totalVotes[voterEntities[msg.sender].voteItem].sub(voterEntities[msg.sender].amount);\n\n        voterEntities[msg.sender].amount = insurancePool.balanceOf(msg.sender);\n        voterEntities[msg.sender].voteItem = voteItem;\n        totalVotes[voteItem] = totalVotes[voteItem].add(voterEntities[msg.sender].amount);\n        return voterEntities[msg.sender].amount;\n    }\n\n    function add(uint voteItem) private returns (uint256) {\n        uint index = voterList.push(msg.sender) - 1;\n        voterEntities[msg.sender].amount = insurancePool.balanceOf(msg.sender);\n        voterEntities[msg.sender].voteItem = voteItem;\n        voterEntities[msg.sender].index = index;\n        totalVotes[voteItem] = totalVotes[voteItem].add(voterEntities[msg.sender].amount);\n        return voterEntities[msg.sender].amount;\n    }\n\n    function remove() private returns (uint256 amount, uint voteItem) {\n        amount = voterEntities[msg.sender].amount;\n        voteItem = voterEntities[msg.sender].voteItem;\n\n        totalVotes[voteItem] = totalVotes[voteItem].sub(amount);\n\n        if (voterList.length == 1) {\n            voterList.length--;\n            return (amount, voteItem);\n        }\n        uint rowToDelete = voterEntities[msg.sender].index;\n        address keyToMove = voterList[voterList.length-1];\n        voterList[rowToDelete] = keyToMove;\n        voterEntities[keyToMove].index = rowToDelete;\n        voterList.length--;\n    }\n\n    function setEnableContractVote(bool enable) external onlyGovernance {\n        enableContractVote = enable;\n    }\n\n    function isSmartContract() internal returns (bool) {\n      if( tx.origin != msg.sender ) {\n        return true;\n      } else {\n          return false;\n      }\n    }\n}\n",
    "sourcePath": "/Users/huahua/repo/truffle/daovoting/contracts/Proposal.sol",
    "compiler": {
        "name": "solc",
        "version": "0.5.16+commit.9c3226ce.Emscripten.clang"
    },
    "schemaVersion": "3.3.2",
    "updatedAt": "2021-02-02T10:54:57.442Z",
    "networkType": "ethereum",
    "devdoc": {
        "methods": {}
    },
    "userdoc": {
        "methods": {}
    }
}